:020000040800F2
:100000000000052039A7000825A4000827A400083F
:1000100029A400082BA400082DA40008000000005B
:100020000000000000000000000000002FA40008F5
:1000300031A400080000000033A4000835A4000823
:1000400089A7000889A7000889A7000889A70008D0
:1000500089A7000889A7000889A7000889A70008C0
:1000600089A7000889A7000889A7000889A70008B0
:1000700089A7000889A7000889A7000889A70008A0
:1000800089A7000889A7000889A7000889A7000890
:1000900089A7000889A7000889A7000889A7000880
:1000A00089A7000889A7000889A7000889A7000870
:1000B00089A700083DA400084DA4000889A70008EE
:1000C00089A7000889A7000889A7000889A7000850
:1000D00089A7000889A7000889A7000889A7000840
:1000E00089A7000889A7000889A7000889A7000830
:1000F00089A7000889A7000889A7000889A7000820
:1001000089A7000889A7000889A7000889A700080F
:1001100089A7000889A7000889A7000889A70008FF
:1001200089A7000889A7000889A7000889A70008EF
:1001300089A700085DA4000889A7000889A700080E
:1001400089A7000889A7000889A7000889A70008CF
:1001500089A7000889A7000889A7000889A70008BF
:1001600089A7000889A7000889A7000889A70008AF
:1001700089A7000889A7000889A7000800000000D7
:1001800089A7000889A7000889A7000889A700088F
:1001900089A7000889A7000889A7000889A700087F
:1001A00089A7000889A7000889A7000889A700086F
:1001B00089A7000889A7000889A7000889A700085F
:0801C00089A7000889A70008C7
:1001D00010B5054C237833B9044B13B10448AFF381
:1001E00000800123237010BD840000200000000067
:1001F000A4B6000808B5034B1BB103490348AFF38D
:10020000008008BD0000000088000020A4B600089F
:1002100081F0004102E000BF83F0004330B54FEAB7
:1002200041044FEA430594EA050F08BF90EA020F24
:100230001FBF54EA000C55EA020C7FEA645C7FEAB7
:10024000655C00F0E2804FEA5454D4EB5555B8BFDA
:100250006D420CDD2C4480EA020281EA030382EA4B
:10026000000083EA010180EA020281EA0303362DDD
:1002700088BF30BD11F0004F4FEA01314FF4801CB0
:100280004CEA113102D0404261EB410113F0004FC2
:100290004FEA03334CEA133302D0524263EB430379
:1002A00094EA050F00F0A780A4F10104D5F1200E17
:1002B0000DDB02FA0EFC22FA05F2801841F1000172
:1002C00003FA0EF2801843FA05F359410EE0A5F146
:1002D00020050EF1200E012A03FA0EFC28BF4CF077
:1002E000020C43FA05F3C01851EBE37101F000452D
:1002F00007D54FF0000EDCF1000C7EEB00006EEB3A
:100300000101B1F5801F1BD3B1F5001F0CD34908C3
:100310005FEA30004FEA3C0C04F101044FEA44521A
:1003200012F5800F80F09A80BCF1004F08BF5FEAA1
:10033000500C50F1000041EB045141EA050130BD81
:100340005FEA4C0C404141EB010111F4801FA4F124
:100350000104E9D191F0000F04BF01460020B1FA79
:1003600081F308BF2033A3F10B03B3F120020CDAB1
:100370000C3208DD02F1140CC2F10C0201FA0CF08F
:1003800021FA02F10CE002F11402D8BFC2F1200CF4
:1003900001FA02F120FA0CFCDCBF41EA0C019040AA
:1003A000E41AA2BF01EB0451294330BD6FEA0404F3
:1003B0001F3C1CDA0C340EDC04F11404C4F12002DE
:1003C00020FA04F001FA02F340EA030021FA04F3F0
:1003D00045EA030130BDC4F10C04C4F1200220FA47
:1003E00002F001FA04F340EA0300294630BD21FA85
:1003F00004F0294630BD94F0000F83F4801306BF4B
:1004000081F480110134013D4EE77FEA645C18BF3E
:100410007FEA655C29D094EA050F08BF90EA020FD5
:1004200005D054EA000C04BF1946104630BD91EACD
:10043000030F1EBF0021002030BD5FEA545C05D1D0
:100440004000494128BF41F0004130BD14F580040F
:100450003CBF01F5801130BD01F0004545F0FE4183
:1004600041F470014FF0000030BD7FEA645C1ABFB8
:10047000194610467FEA655C1CBF0B46024650EAEF
:10048000013406BF52EA033591EA030F41F400211B
:1004900030BD00BF90F0000F04BF0021704730B5A1
:1004A0004FF4806404F132044FF000054FF0000176
:1004B00050E700BF90F0000F04BF0021704730B537
:1004C0004FF4806404F1320410F0004548BF40420C
:1004D0004FF000013EE700BF42004FEAE2014FEA61
:1004E00031014FEA02701FBF12F07F4393F07F4F3C
:1004F00081F06051704732F07F4208BF704793F03F
:100500007F4F04BF41F40021704730B54FF4607451
:1005100001F0004521F000411CE700BF50EA010254
:1005200008BF704730B54FF000050AE050EA0102FD
:1005300008BF704730B511F0004502D5404261EB6D
:1005400041014FF4806404F132045FEA915C3FF4AE
:10055000D8AE4FF003025FEADC0C18BF03325FEA4B
:10056000DC0C18BF033202EBDC02C2F1200300FAFC
:1005700003FC20FA02F001FA03FE40EA0E0021FA21
:1005800002F11444BDE600BF70B54FF0FF0C4CF40F
:10059000E06C1CEA11541DBF1CEA135594EA0C0FC1
:1005A00095EA0C0F00F0DEF82C4481EA030621EAFC
:1005B0004C5123EA4C5350EA013518BF52EA033537
:1005C00041F4801143F4801338D0A0FB02CE4FF0E9
:1005D0000005E1FB02E506F00042E0FB03E54FF019
:1005E0000006E1FB03569CF0000F18BF4EF0010E11
:1005F000A4F1FF04B6F5007F64F5407404D25FEA0D
:100600004E0E6D4146EB060642EAC62141EA5551BF
:100610004FEAC52040EA5E504FEACE2EB4F1FD0C01
:1006200088BFBCF5E06F1ED8BEF1004F08BF5FEA7F
:10063000500E50F1000041EB045170BD06F0004631
:1006400046EA010140EA020081EA0301B4EB5C04DE
:10065000C2BFD4EB0C0541EA045170BD41F48011D6
:100660004FF0000E013C00F3AB8014F1360FDEBFFB
:10067000002001F0004170BDC4F10004203C35DAD7
:100680000C341BDC04F11404C4F1200500FA05F35A
:1006900020FA04F001FA05F240EA020001F00042FB
:1006A00021F0004110EBD37021FA04F642EB060171
:1006B0005EEA430E08BF20EAD37070BDC4F10C049B
:1006C000C4F1200500FA04F320FA05F001FA04F25F
:1006D00040EA020001F0004110EBD37041F100014B
:1006E0005EEA430E08BF20EAD37070BDC4F1200556
:1006F00000FA05F24EEA020E20FA04F301FA05F2BE
:1007000043EA020321FA04F001F0004121FA04F265
:1007100020EA020000EBD3705EEA430E08BF20EA35
:10072000D37070BD94F0000F0FD101F0004640006F
:1007300041EB010111F4801F08BF013CF7D041EAF1
:10074000060195F0000F18BF704703F000465200F5
:1007500043EB030313F4801F08BF013DF7D043EAC6
:100760000603704794EA0C0F0CEA135518BF95EA7C
:100770000C0F0CD050EA410618BF52EA4306D1D103
:1007800081EA030101F000414FF0000070BD50EA22
:10079000410606BF1046194652EA430619D094EAAC
:1007A0000C0F02D150EA013613D195EA0C0F05D196
:1007B00052EA03361CBF104619460AD181EA0301EA
:1007C00001F0004141F0FE4141F470014FF00000A2
:1007D00070BD41F0FE4141F4780170BD70B54FF03D
:1007E000FF0C4CF4E06C1CEA11541DBF1CEA1355BD
:1007F00094EA0C0F95EA0C0F00F0A7F8A4EB05049F
:1008000081EA030E52EA03354FEA013100F0888095
:100810004FEA03334FF0805545EA131343EA12635E
:100820004FEA022245EA111545EA10654FEA002613
:100830000EF000419D4208BF964244F1FD0404F5CC
:10084000407402D25B084FEA3202B61A65EB030528
:100850005B084FEA32024FF480104FF4002CB6EBE5
:10086000020E75EB030E22BFB61A754640EA0C0065
:100870005B084FEA3202B6EB020E75EB030E22BFA5
:10088000B61A754640EA5C005B084FEA3202B6EBE6
:10089000020E75EB030E22BFB61A754640EA9C00A5
:1008A0005B084FEA3202B6EB020E75EB030E22BF75
:1008B000B61A754640EADC0055EA060E18D04FEA33
:1008C000051545EA16754FEA06164FEAC30343EAD3
:1008D00052734FEAC2025FEA1C1CC0D111F4801FA0
:1008E0000BD141EA00014FF000004FF0004CB6E799
:1008F00011F4801F04BF01430020B4F1FD0C88BF38
:10090000BCF5E06F3FF6AFAEB5EB030C04BFB6EB42
:10091000020C5FEA500C50F1000041EB045170BD35
:100920000EF0004E4EEA113114EB5C04C2BFD4EB62
:100930000C0541EA045170BD41F480114FF0000EE6
:10094000013C90E645EA060E8DE60CEA135594EA62
:100950000C0F08BF95EA0C0F3FF43BAF94EA0C0F65
:100960000AD150EA01347FF434AF95EA0C0F7FF4DA
:1009700025AF104619462CE795EA0C0F06D152EA2E
:1009800003353FF4FDAE1046194622E750EA410612
:1009900018BF52EA43067FF4C5AE50EA41047FF423
:1009A0000DAF52EA43057FF4EBAE12E74FEA410286
:1009B000B2F1E04324BFB3F5001CDCF1FE5C0DD9BD
:1009C00001F0004C4FEAC0024CEA5070B2F1004F07
:1009D00040EB830008BF20F00100704711F0804F0A
:1009E00021D113F13872BCBF01F00040704741F4CF
:1009F00080114FEA5252C2F11802C2F1200C10FAD3
:100A00000CF320FA02F018BF40F001004FEAC123B6
:100A10004FEAD32303FA0CFC40EA0C0023FA02F35A
:100A20004FEA4303CCE77FEA625307D150EA013330
:100A30001EBF4FF0FE4040F44000704701F0004000
:100A400040F0FE4040F40000704700BF53B94AB97F
:100A5000002908BF00281CBF4FF0FF314FF0FF30C6
:100A600000F072B9ADF1080C6DE904CE00F006F8A3
:100A7000DDF804E0DDE9022304B070472DE9F0471A
:100A8000089E04468846002B4BD18A42154667D9FA
:100A9000B2FA82F24AB1C2F1200701FA02F320FA57
:100AA00007F7954047EA030894404FEA154E230C98
:100AB000B8FBFEF71FFA85FC0EFB178843EA0843D4
:100AC00007FB0CF1994209D9EB1807F1FF3080F0D0
:100AD0001B81994240F21881023F2B445B1AA4B259
:100AE000B3FBFEF00EFB103344EA034400FB0CFCA6
:100AF000A44509D92C1900F1FF3380F00781A445E2
:100B000040F2048102382C4440EA0740A4EB0C0474
:100B100000271EB1D4400023C6E900433946BDE892
:100B2000F0878B4209D9002E00F0EB800027C6E940
:100B3000000138463946BDE8F087B3FA83F7002F45
:100B400047D18B4202D3824200F2FA80841A61EBD1
:100B5000030301209846002EE0D0C6E90048DDE7F7
:100B600002B9FFDEB2FA82F2002A40F08F80491B00
:100B70004FEA154E1FFA85F80127B1FBFEFC230C46
:100B80000EFB1C1143EA014308FB0CF1994207D903
:100B9000EB180CF1FF3002D2994200F2CD8084466E
:100BA000591AA3B2B1FBFEF00EFB101443EA044441
:100BB00008FB00F8A04507D92C1900F1FF3302D239
:100BC000A04500F2B6801846A4EB080440EA0C40A9
:100BD0009FE7C7F1200CBB4022FA0CFE4EEA030E41
:100BE00001FA07F420FA0CF521FA0CF34FEA1E483B
:100BF0002543B3FBF8F92C0C08FB19331FFA8EFAC6
:100C000044EA034309FB0AF49C4202FA07F200FAA1
:100C100007F10BD91EEB030309F1FF3080F0878049
:100C20009C4240F28480A9F1020973441B1BADB2BF
:100C3000B3FBF8F008FB103345EA034400FB0AFA63
:100C4000A24508D91EEB040400F1FF336BD2A24584
:100C500069D90238744440EA0940A0FB0289A4EB38
:100C60000A044C45C2464B4654D351D0002E69D09D
:100C7000B1EB0A0564EB030404FA0CFCFD40FC40F4
:100C80004CEA0505C6E90054002747E7C2F12003F6
:100C900020FA03F7954001FA02F021FA03F34FEA34
:100CA000154E3843010CB3FBFEF71FFA85F80EFB17
:100CB000173341EA034107FB08F38B4204FA02F4BD
:100CC00007D9691807F1FF3C2FD28B422DD9023F7B
:100CD0002944CB1A81B2B3FBFEF00EFB103341EA7C
:100CE000034100FB08F38B4207D9691800F1FF3C70
:100CF00017D28B4215D902382944C91A40EA07474E
:100D00003BE73746304609E70746E7E61846FBE685
:100D10004145ABD2B8EB020A69EB0E02013813462B
:100D2000A4E76046E9E7184695E76746D1E78146BC
:100D30007CE702382C4447E7ACF1020C2B442FE748
:100D4000384608E73746E9E6704700BF0000000074
:100D500001F0FF01102A2BDB10F0070F08D010F86C
:100D6000013B013A8B422DD010F0070F42B3F6D170
:100D7000F0B441EA012141EA014122F007047FF089
:100D800000070023F0E80256083C85EA010586EAE0
:100D9000010685FA47F5A3FA87F586FA47F6A5FA1C
:100DA00087F68EB9EED1F0BC01F0FF0102F0070228
:100DB00032B110F8013B013A83EA010313B1F8D1D3
:100DC0000020704701387047002D06BF35460338B4
:100DD000073815F0010F07D1013015F4807F02BFED
:100DE000013015F4C03F0130F0BC0138704700BF3E
:100DF0002DE9F04104460D461746960815E009F026
:100E0000C5FC85ED000A23E009F0C0FC85ED010A70
:100E10002FE009F0BBFC85ED020A3BE009F0B6FCCF
:100E200085ED030A013E25464446002E48D094ED48
:100E3000000AD4ED017A20EE000A67EEA77A30EEC0
:100E4000270AB5EEC00AF1EE10FAD8DA00232B60BB
:100E500094ED020AD4ED037A20EE000A67EEA77A39
:100E600030EE270AB5EEC00AF1EE10FACCDA002314
:100E70006B6094ED040AD4ED057A20EE000A67EE6B
:100E8000A77A30EE270AB5EEC00AF1EE10FAC0DA02
:100E90000023AB6094ED060A04F12008D4ED077A34
:100EA00020EE000A67EEA77A30EE270A05F110045B
:100EB000B5EEC00AF1EE10FAB0DA0023EB60B1E74C
:100EC00007F0030706E009F061FC85ED000A013F29
:100ED00025463446A7B12646083694ED000AD4EDDF
:100EE000017A20EE000A67EEA77A30EE270A2C1D61
:100EF000B5EEC00AF1EE10FAE5DA00232B60E6E762
:100F0000BDE8F0812DE9F04F49084F1C002426462A
:100F100020E00135ED0000EB050EDEF800800C440A
:100F2000E40000EB040CDCF80090CEF80090CCF864
:100F3000008004350544D5F800C004340444D4F8D6
:100F400000E0C5F800E0C4F800C01C8803EB4203D1
:100F50000236B6B23546A1F1020C664542D8A64229
:100F6000D7D24FEAC50E00EB0E09D9F800A04FEA20
:100F7000C40C00EB0C08D8F800B0C9F800B0C8F8F1
:100F800000A00EF1040E8644DEF800800CF1040C83
:100F90008444DCF80090CEF80090CCF8008006EB9A
:100FA000070E4FEACE0E00EB0E09D9F800A004EBB5
:100FB000070C4FEACC0C00EB0C08D8F800B0C9F8CD
:100FC00000B0C8F800A00EF1040E8644DEF80080E0
:100FD0000CF1040C8444DCF80090CEF80090CCF8BE
:100FE000008096E7BDE8F08F2DE9F04F2DED048BE2
:100FF00089B005919346029307914FEA9109CDF884
:1010000010904FF00008C24608EB090209EB0203FA
:1010100009EB03014FEAC80400EB040EDEED006AA1
:1010200004340444D4ED004AD20000EB020C9CEDE1
:10103000004A0432024492ED006ADB00C71897EDC3
:10104000007A043303440193D3ED005AC9004618D3
:1010500096ED005A04310144D1ED007A36EE872A2C
:1010600074EE052A34EEA51A76EE271A4FEA0A1511
:101070000BEB050393ED003A04355D44D5ED003AE2
:1010800076EEC76A34EE455A74EEE55A76EE677A24
:1010900032EE227A8EED007A31EE217A84ED007AFA
:1010A00036EEA74A75EEC50A72EE624A31EE612A43
:1010B00036EEE77A35EE256A4FEACA040BEB0405F3
:1010C000D5ED005A04345C4494ED005A0AEB4A040E
:1010D000E4000BEB0405D5ED006A04345C44D4ED68
:1010E000007A24EE251A60EEA52A63EE241A23EE78
:1010F000023A67EE265A66EE266A60EE850A24EE0C
:10110000055A23EE822A63EEA44A26EE276A67EE8A
:10111000277A71EE200A32EEC55A31EE822A73EE3A
:10112000644A35EE866A76EEE77A8CED002AC2EDE7
:10113000004AC7ED000A019B83ED005A86ED006A64
:10114000C1ED007A029B9A4408F10108049B013B1F
:1011500004937FF459AF029B9B009BB20393059BC2
:101160009B0806930593DDF81CA0B3E04FEA9906AF
:10117000049B01930293029C04EB4403E2000BEBFB
:101180000201D1ED008A04325A4492ED008A220114
:101190000BEB020191ED000A04325A44D2ED000A31
:1011A000DB000BEB030292ED001A04335B44D3ED3A
:1011B000001A039BE3180293019DAA19B318F118B2
:1011C000EC0000EB040898ED004A0434044494ED6C
:1011D000006AD20000EB020EDEED005A0432024437
:1011E000D2ED007ADB0000EB030C9CED005A0433D7
:1011F000034493ED007AC9004718D7ED004A043143
:101200000144D1ED006A34EE453A35EEE42A76EE3B
:10121000472A77EEE63A34EE055A75EEA45A36EED2
:10122000077A77EEA67A73EE234A32EEC24A35EE9B
:10123000659A77EE679A73EE636A32EE226A75EE0C
:10124000255AC8ED005A77EE277AC4ED007A28EEC9
:10125000A45A68EE845A20EE093A60EE293A21EE4B
:10126000267A61EE067A28EE044A68EE244A60EE99
:10127000A99A20EE899A21EE866A61EEA66A35EE79
:10128000044A75EEE44A73EE299A33EEC99A37EEB2
:10129000066A77EEE66ACEED009A82ED009A8CED52
:1012A000004AC3ED004A87ED006AC1ED006A4D4473
:1012B000AA4582D8019B01331A460193731E9342BB
:1012C000BFF459AF039B9B009BB20393059B9B0804
:1012D0000593B146059B042B3FF648AF069B90ED66
:1012E000004A90ED016AD0ED027AD0ED034AD0EDCC
:1012F000045A90ED057AD0ED066A90ED075A34EE67
:10130000253A74EE655A36EE074A36EE477A77EE9E
:10131000A63A34EE856A77EEE67A74EEC56A33EE65
:10132000232A74EE062A73EE633A34EE466A75EEAB
:10133000A64A37EE675A75EEE66A77EE277A80EDB1
:10134000002AC0ED012AC0ED023A80ED036AC0ED2B
:10135000044A80ED055AC0ED066AC0ED077A2030D8
:10136000013BBCD109B0BDEC048BBDE8F08F2DE989
:10137000F04F2DED068B89B00591934602930791AE
:101380004FEA9109CDF810904FF00008C24608EBE3
:10139000090209EB020309EB03014FEAC80400EB61
:1013A000040EDEED006A04340444D4ED004ADB0090
:1013B000C71897ED007A04330344019393ED005A64
:1013C000D20000EB020C9CED004A0432024492ED84
:1013D000006AC9004618D6ED005A04310144D1ED27
:1013E000007A36EE872A74EE252A34EE851A76EED8
:1013F000271A4FEA0A150BEB050393ED003A043563
:101400005D44D5ED003A76EEC76A74EE655A34EE67
:10141000C55A76EE677A32EE227A8EED007A31EE98
:10142000217A84ED007A36EEE74A75EE850A72EE8F
:10143000624A31EE612A36EEA77A35EE656A4FEAE6
:10144000CA040BEB0405D5ED005A04345C4494ED5A
:10145000005A0AEB4A04E4000BEB0405D5ED006AE0
:1014600004345C44D4ED007A24EE251A60EEA52AFB
:1014700063EE241A23EE023A67EE265A66EE266AD7
:1014800060EE850A24EE055A23EE822A63EEA44A12
:1014900026EE276A67EE277A71EE600A32EE855AE9
:1014A00031EEC22A73EE244A35EEC66A76EEA77A8A
:1014B0008CED002AC2ED004AC7ED000A019B83EDC6
:1014C000005A86ED006AC1ED007A029B9A4408F149
:1014D0000108049B013B04937FF459AF029B9B00DE
:1014E0009BB20393059B9B0806930593DDF81CA014
:1014F000B3E04FEA9906049B01930293029C04EB2C
:101500004403E2000BEB020191ED009A04325A44CD
:10151000D2ED008A22010BEB020191ED008A043228
:101520005A44D2ED000ADB000BEB030292ED001AE5
:1015300004335B44D3ED001A039BE3180293019D2F
:10154000AA19B318F118EC0000EB040898ED004A52
:101550000434044494ED006AD20000EB020EDEED88
:10156000005A04320244D2ED007ADB0000EB030C97
:101570009CED005A0433034493ED007AC9004718E8
:10158000D7ED004A04310144D1ED006A34EE453A0A
:1015900075EEE42A36EE472A77EEE63A34EE055A3F
:1015A00075EEA45A36EE077A77EEA67A73EE634AA2
:1015B00032EE824A75EE659A37EE67AA73EE236AB9
:1015C00032EE626A75EE255AC8ED005A77EE277A38
:1015D000C4ED007A29EE245A69EE045A28EE293A1D
:1015E00068EE0A3A21EE267A61EE067A28EE844AFF
:1015F00068EEA44A20EE8AAA60EEA99A21EE866AD5
:1016000061EEA66A35EE444A75EEA44A33EE4AAA64
:1016100073EEA99A37EE466A77EEA66A8EED00AAB7
:10162000C2ED009A8CED004AC3ED004A87ED006AD6
:10163000C1ED006A4D44AA4582D8019B01331A4688
:101640000193731E9342BFF459AF039B9B009BB25F
:101650000393059B9B080593B146059B042B3FF61E
:1016600048AF069B90ED004A90ED016AD0ED027AFA
:10167000D0ED034AD0ED045A90ED057AD0ED066A1C
:1016800090ED075A34EE253A74EE655A36EE074A65
:1016900036EE477A77EEA63A34EE856A77EEE67A4A
:1016A00074EEC56A33EE232A74EE062A73EE633AAB
:1016B00034EE466A75EEE64A37EE275A75EEA66AAC
:1016C00077EE677A22EE003A22EE804A63EE803AA5
:1016D00026EE006A64EE805A25EE007A66EE806A95
:1016E00067EE807A80ED003A80ED014AC0ED023A63
:1016F00080ED036AC0ED045A80ED057AC0ED066AFC
:10170000C0ED077A2030013BACD109B0BDEC068BAF
:10171000BDE8F08F38B504460D468378012B09D01B
:101720008389426801882846FFF75EFCE378012B35
:1017300009D038BD90ED040A8389426801882846A3
:10174000FFF715FEF2E7A368E28921882846FFF734
:10175000D9FBEEE710B40180244C44608270C37062
:10176000B1F5807F2AD00DD8102931D040293AD147
:1017700040238381C3811E4B83604FF0725303610A
:1017800000200EE0B1F5806F0ED0B1F5805F2AD158
:1017900001238381C381174B83604FF0665303613C
:1017A00000205DF8044B704704238381C381124BF2
:1017B00083604FF06A5303610020F2E710238381B6
:1017C000C3810E4B83604FF06E5303610020E8E746
:1017D0004FF480738381C381094B83604FF076534C
:1017E00003610020DDE74FF0FF30DAE708FE020872
:1017F00006FE030888FD03088EFD0308A6FD030806
:1018000086FF030810B504460E4B18784FF47A7320
:10181000B3FBF0F30C4A1068B0FBF3F000F09AF859
:1018200068B90F2C01D901200AE0002221464FF0AF
:10183000FF3000F04FF8034B5C60002000E0012017
:1018400010BD00BF000000201800002008B50320D4
:1018500000F02EF80020FFF7D5FF08F033FD002040
:1018600008BD0000034A1168034B1B780B4413604A
:10187000704700BF2802002000000020014B1868BC
:10188000704700BF2802002038B50446FFF7F6FF76
:101890000546B4F1FF3F02D0044B1B781C44FFF710
:1018A000EDFF401BA042FAD338BD00BF000000206E
:1018B0000649CB6823F4E0631B041B0C000200F410
:1018C000E0600343024A1A43CA60704700ED00E03B
:1018D0000000FA0530B4154BDB68C3F30223C3F1F3
:1018E0000704042C28BF04241D1D062D14D9033B16
:1018F0004FF0FF3505FA04F421EA0401994005FA96
:1019000003F322EA03031943002807DB0901C9B2E4
:10191000074B195430BC70470023E9E700F00F0073
:101920000901C9B2034B1954F4E700BF00ED00E010
:1019300000E400E014ED00E0002807DB00F01F02E7
:10194000400901239340024A42F82030704700BF0B
:1019500000E100E00138B0F1807F0AD2064B586008
:10196000064AF02182F823100020986007221A60AE
:1019700070470120704700BF10E000E000ED00E07C
:101980005079137943EA002307480B50D0789378B5
:101990001B0443EA0063507843EA002312781343A0
:1019A000024A8B50704700BF408002404480024092
:1019B000016841F218028B5843F400538B50704772
:1019C000016841F218028B5843F002038B507047B4
:1019D00070B59EB0044629B14FF40063C3604FF464
:1019E00080438360E369002B68D14FF480630793E1
:1019F00021680B68374A1A40A368E06803430798D8
:101A0000034343F4007313430B6023681D680120F4
:101A1000FFF73AFF23681D60236840225A6023685D
:101A20005D680120FFF730FF23685D6023680025B3
:101A30009D602368DD602268936923F0BE031B0468
:101A40001B0C43F08003936123689E690120FFF71C
:101A50001BFF23689E612368DD612368DD69012027
:101A6000FFF712FF2368DD61216841F218054B5929
:101A7000194A1A40194B13434B5123685E590120F0
:101A8000FFF702FF23685E51236803F58053144A71
:101A90001A60236803F580531D680120FFF7F4FEE8
:101AA000236803F580531D60A369012B09D0626987
:101AB00000212046FFF764FF1EB070BD002307938E
:101AC00096E7216841F21C028858064B03438B506D
:101AD000EDE700BF0F8120FF233FDEF80400200266
:101AE0008020C1024000010010B582B004460023EE
:101AF00001930268136843F00803136003681B68CE
:101B000001930120FFF7C0FE2368019A1A6002B01A
:101B100010BD10B582B0044600230193026813681B
:101B200043F00403136003681B6801930120FFF76F
:101B3000ABFE2368019A1A6002B010BD30B583B0C5
:101B4000054600230193026841F21804135943F437
:101B50008013135103681B5901930120FFF794FE72
:101B60002B68019A1A5103B030BDF0B490F845408B
:101B7000012C31D0012480F84540022480F84440F3
:101B8000C162002401E0F96001349C4217D2650172
:101B90004F194FF480164E5140F2F45606FB0426BE
:101BA000BE60C6691EB94E5946F440064E515D1ED0
:101BB000A542E8D9651C01EB4515FD60E4E7026824
:101BC00041F21003D150012380F84430002380F803
:101BD00045301846F0BC70470220FBE7F0B490F89F
:101BE0004540012C2ED0012480F84540022480F885
:101BF00044408162002401E0E96001349C4214D237
:101C000066018D194FF000478F5144F2F4566E6013
:101C100040F2F45606FB0426AE605E1EA642EBD9E7
:101C2000661C01EB4616EE60E7E7026841F20C0322
:101C3000D150012380F84430002380F84530184605
:101C4000F0BC70470220FBE790F84530012B00F014
:101C50008580012380F84530022380F84430B1B1FB
:101C6000C36A1A68002A1ADB30B440F2F452914277
:101C70001DD93B4AA2FB0142920A40F2F45404FBF4
:101C8000121404B10132012A11D0002347E00123CC
:101C900080F84430002280F845201846704712230F
:101CA00080F84430002380F84530012070471A68DE
:101CB00042F040521A60C36AC1F30C015960C26A13
:101CC000136843F000431360C36ADB68C3620368B0
:101CD00041F214029A5812F0040F08D041F2140293
:101CE00004219950026841F204030021D1500123DC
:101CF00080F84430002380F84530184630BC7047E7
:101D0000C56A2C6844F080542C6011E0C56A2C68C8
:101D100044F000442C60C46AE468C46201339A420F
:101D2000D5D9C56A2C6824F040542C60002BE7D02C
:101D3000C46A40F2F4556560541E9C42E6D1C56AFF
:101D40002C6844F000542C60064C04FB021404F28E
:101D5000F454C56AC4F30C046C60D7E702207047E2
:101D60000BB002AC0CFAFFFF90F84530012B40D0CD
:101D7000012380F84530022380F84430836A1A68D2
:101D8000002A28DB1A6812F4807F19D0826B013296
:101D90008263012A12D043631A68C2F30D42043AE7
:101DA000C263026B92680264DB688362012380F87D
:101DB0004430002380F84530184670470363EAE753
:101DC0001A6812F4007F0ED00363002242630122DE
:101DD0008263DB688362012380F84430002280F84C
:101DE000452018467047826B01328263DB6883624C
:101DF000F1E70220704770477047704710B50446FE
:101E0000036841F214029A5812F0400F11D141F2C6
:101E100014029B5813F0010F19D1226841F21403E8
:101E20004FF48031D1502268D35813F4004F1BD1A6
:101E300010BDFFF7E1FF226841F214034021D150A9
:101E4000012384F84430002384F84530E5E7FFF7A8
:101E5000D2FF2168012341F214028B5084F84430F0
:101E6000002384F84530D8E72046FFF7C6FF2268F4
:101E700041F214034FF40041D150012384F844305F
:101E8000002384F84530D3E7F8B590F84430DBB24E
:101E9000822B33D016460546822380F844300268F0
:101EA000136903F01C03048AE402A4B223438C01E7
:101EB00004F4F8641C4344F001041461FFF7DEFCF1
:101EC000074614F0010F10D0FFF7D8FCC01BB0F587
:101ED000803F02D22B681C69F3E7012385F8443068
:101EE000002385F84530032007E02B685B699BB22F
:101EF0003360012385F844300020F8BD0220FCE760
:101F000090F84430DBB2422B32D070B50546422304
:101F100080F844300068036903F01C032C8AE40253
:101F2000A4B223438C0104F4F8641C4344F003047A
:101F300092B242612B681C61FFF7A0FC064614F0C8
:101F4000010F10D0FFF79AFC801BB0F5803F02D242
:101F50002B681C69F3E7012385F84430002385F8DA
:101F60004530032003E0012385F84430002070BD94
:101F70000220704770B582B000230193002800F062
:101F80000C81044690F84430002B32D0844B5A6CBC
:101F900042F480425A645B6C03F480430093009BDC
:101FA000804B5A6822F400025A605A68216A0A4338
:101FB0005A60236803F580531A6842F001021A60E0
:101FC000FFF75CFC0546236803F58052126812F0A7
:101FD000010F13D0FFF752FC401BB0F5FA7FF2D986
:101FE000032584F84450002384F84530284602B085
:101FF00070BD80F8453007F097FDC7E71D6925F0F3
:102000001C0500F047FD684B0344684A934255D8CD
:1020100045F0080523681D614FF400420021204669
:10202000FFF76EFF0546002860D1FF20FFF72CFC6C
:102030006368002B00F09180FFF720FC064601AAA0
:1020400001212046FFF720FFFFF718FC801B41F21B
:102050008833984252D8019B13F0040FEFD04FF40D
:10206000805200212046FFF74BFF002852D1FFF796
:1020700005FC064601AA01212046FFF705FFFFF7F0
:10208000FDFB801B41F2883398424BD8019B13F033
:10209000200FEFD001AA1F212046FFF7F5FE0028F0
:1020A0004CD1019B13F0100F50D04FF40062E2604E
:1020B00013F0040F4DD00023A3605EE03C4B0344BB
:1020C0003C4A934202D845F00C05A3E73A4B03443F
:1020D0003A4A93429ED93A4B03443A4A934202D831
:1020E00045F0040596E745F0100593E701212046E9
:1020F000FFF76EFC012584F8445077E70121204664
:10210000FFF766FC012384F84430002384F845304F
:1021100003256BE701212046FFF75AFC012584F8CF
:10212000445063E701212046FFF752FC012384F865
:102130004430002384F84530032557E70121204629
:10214000FFF746FC012584F844504FE70022E26087
:10215000AEE74FF48043A3600FE0E268C2F3CF0222
:10216000A368C3F34F031A4300212046FFF7C8FEBC
:1021700058B940F6FF70FFF787FB00212046FFF7B4
:1021800027FC012384F8443030E701212046FFF783
:102190001FFC012584F8445028E7012526E700BFED
:1021A000003802400038014000D3CEFEBFE1E40019
:1021B00040F1E9FD3F787D0100796CFCFF59620236
:1021C000001F0AFA7FF0FA0238B590F84530012B6B
:1021D0001AD00446012580F84550022380F8443087
:1021E000FFF782FC2046FFF794FC2046FFF7A6FC91
:1021F0002046FFF7DDFB2046FFF7E2FB84F8445062
:10220000002084F8450038BD0220FCE700230F2B96
:1022100000F2E280F0B482B039E0092200E000224E
:10222000B2403A4302346D4E46F824206C4A14689A
:10223000EA4302EA04064F6817F4803F01D045EAFA
:102240000406674C2660646802EA04064F6817F4C7
:10225000003F01D045EA0406614C6660A46802EACA
:1022600004064F6817F4801F01D045EA04065C4C51
:10227000A660E46822404E6816F4001F01D045EACB
:102280000402574CE26001330F2B00F2A2800122BE
:102290009A400C6804EA0205AA42F4D14C68122C58
:1022A00018BF022C10D1DE08083650F826C003F003
:1022B0000704A7000F24BC402CEA040C0C69BC40A6
:1022C00044EA0C0440F8264004685F000326BE4040
:1022D000F64306EA040C4C6804F00304BC4044EAEC
:1022E0000C0404604C6804F1FF3C112C18BFBCF1D5
:1022F000010F01D9122C11D1846806EA040CCC68B4
:10230000BC4044EA0C048460446824EA020C4C6833
:10231000C4F300129A4042EA0C024260C2681640BE
:102320008A68BA403243C2604A6812F0805FAAD01D
:102330002C4A546C44F480445464526C02F480423D
:102340000192019A9C08A61C244A52F8267003F0B8
:10235000030296000F22B24027EA0207224A904267
:102360003FF45DAF02F58062904222D002F58062B8
:10237000904220D002F5806290421ED002F5806229
:1023800090421CD002F5806290421AD002F5806221
:10239000904218D002F58062904216D002F5806219
:1023A000904214D002F5806290423FF436AF0A2288
:1023B00036E7012234E7022232E7032230E7042223
:1023C0002EE705222CE706222AE7072228E7082223
:1023D00026E702B0F0BC7047704700BF00380140EC
:1023E000003C0140003802400000024012B90904DC
:1023F0008161704781617047024A136843F48073BA
:10240000136070470070004010B582B01B4B1A6C0F
:1024100042F080521A641B6C03F080530193019BBD
:10242000174A136843F480331360FFF727FA044612
:10243000134B5B6813F4803F08D1FFF71FFA001BB2
:10244000B0F57A7FF4D9032002B010BD0C4A1368AE
:1024500043F400331360FFF711FA0446084B5B683E
:1024600013F4003F07D1FFF709FA001BB0F57A7F9C
:10247000F4D90320E8E70020E6E700BF0038024077
:1024800000700040002800F0DB8170B582B0044687
:10249000036813F0010F29D0A24B9B6803F00C03D3
:1024A000042B1AD09F4B9B6803F00C03082B0FD012
:1024B0006368B3F5803F40D0002B54D1994B1A6824
:1024C00022F480321A601A6822F480221A6039E0FD
:1024D000944B5B6813F4800FEAD0924B1B6813F4A3
:1024E000003F03D06368002B00F0AC81236813F039
:1024F000020F75D08B4B9B6813F00C0F5ED0894B8D
:102500009B6803F00C03082B53D0E368002B00F00A
:102510008A80844A136843F001031360FFF7AEF921
:102520000546804B1B6813F0020F73D1FFF7A6F925
:10253000401B0228F5D9032087E17A4A136843F447
:102540008033136063682BB3FFF798F90546754B2A
:102550001B6813F4003FC9D1FFF790F9401B6428B2
:10256000F5D9032071E1B3F5A02F09D06D4B1A689E
:1025700022F480321A601A6822F480221A60E1E79D
:10258000684B1A6842F480221A601A6842F480325A
:102590001A60D7E7FFF772F90546624B1B6813F420
:1025A000003FA3D0FFF76AF9401B6428F5D9032048
:1025B0004BE15C4B5B6813F4800FA6D1594B1B6851
:1025C00013F0020F04D0E368012B01D001203CE19D
:1025D000544A136823F0F803216943EAC1031360E6
:1025E000236813F0080F46D0636983B34D4A536FD5
:1025F00043F001035367FFF741F90546494B5B6F11
:1026000013F0020F37D1FFF739F9401B0228F5D933
:1026100003201AE1434A136823F0F803216943EACF
:10262000C1031360DCE73F4A136823F00103136022
:10263000FFF724F905463B4B1B6813F0020FCFD080
:10264000FFF71CF9401B0228F5D90320FDE0354AAD
:10265000536F23F001035367FFF710F90546314B21
:102660005B6F13F0020F06D0FFF708F9401B02283A
:10267000F5D90320E9E0236813F0040F7ED0294B3D
:102680001B6C13F0805F1ED1264B1A6C42F08052F7
:102690001A641B6C03F080530193019B0125224BAC
:1026A0001B6813F4807F10D0A368012B21D0002B6E
:1026B0003CD11C4B1A6F22F001021A671A6F22F0EC
:1026C00004021A671AE00025E9E7174A136843F481
:1026D00080731360FFF7D2F80646134B1B6813F4A0
:1026E000807FE1D1FFF7CAF8801B6428F5D9032069
:1026F000ABE00C4A136F43F001031367A3685BB3AD
:10270000FFF7BCF80646074B1B6F13F0020F34D1DE
:10271000FFF7B4F8801B41F288339842F3D90320C5
:1027200093E000BF0038024000700040052B09D044
:10273000484B1A6F22F001021A671A6F22F0040246
:102740001A67DBE7434B1A6F42F004021A671A6FED
:1027500042F001021A67D1E7FFF790F806463D4BB9
:102760001B6F13F0020F08D0FFF788F8801B41F2AF
:1027700088339842F3D9032067E0F5B9A369002BA9
:1027800062D0344A926802F00C02082A5FD0022B11
:1027900019D0304A136823F080731360FFF76EF886
:1027A00004462C4B1B6813F0007F47D0FFF766F8F8
:1027B000001B0228F5D9032047E0264A136C23F0BA
:1027C00080531364DAE7234A136823F0807313609D
:1027D000FFF754F805461F4B1B6813F0007F06D027
:1027E000FFF74CF8401B0228F5D903202DE0E369E0
:1027F000226A1343626A43EA8213A26A5208013AC8
:1028000043EA0243E26A43EA026343F00053114A97
:102810005360136843F080731360FFF72FF804468A
:102820000C4B1B6813F0007F06D1FFF727F8001B45
:102830000228F5D9032008E0002006E0002004E08B
:1028400001207047012000E0002002B070BD01208F
:10285000FBE700BF00380240324B9B6803F00C03DB
:10286000042B5CD0082B01D02F4870472DE9F04B8A
:102870002C4B5A6802F03F025B6813F4800F2BD098
:10288000284B5B68C3F388131E4600275C010025B4
:10289000E41A65EB0705A90141EA9461A001001B58
:1028A00061EB0501CB0043EA5073C400A01943EB70
:1028B00007014B0243EAD053440220461946002345
:1028C000FEF7C4F8174B5B68C3F3014301335B00A9
:1028D000B0FBF3F0BDE8F08B124B5B68C3F38813D9
:1028E0001E4600275C010025E41A65EB0705A901D7
:1028F00041EA9461A001001B61EB0501CB0043EAB2
:102900005073C400A01943EB07018B0243EA9053B4
:102910008402204619460023FEF798F8D2E70348C0
:10292000704700BF003802400024F40000127A0013
:10293000002800F0A28070B50446524B1B6803F0DB
:102940000F038B420CD24F4A136823F00F030B4343
:102950001360136803F00F038B4201D0012070BD98
:10296000236813F0020F17D013F0040F04D0464A67
:10297000936843F4E0539360236813F0080F04D086
:10298000414A936843F4604393603F4A936823F05D
:10299000F003A068034393600D46236813F0010F12
:1029A00031D06368012B20D0022B25D0364A126823
:1029B00012F0020F63D034498A6822F003021343F5
:1029C0008B60FEF75BFF06462F4B9B6803F00C0302
:1029D0006268B3EB820F16D0FEF750FF801B41F206
:1029E00088339842F0D90320B9E7274A126812F4D5
:1029F000003FE0D10120B2E7234A126812F0007FC5
:102A0000D9D10120ABE71F4B1B6803F00F03AB428A
:102A10000CD91C4A136823F00F032B43136013686F
:102A200003F00F03AB4201D0012098E7236813F0B5
:102A3000040F06D0144A936823F4E053E1680B4373
:102A40009360236813F0080F07D00F4A936823F4AC
:102A50006043216943EAC1039360FFF7FDFE0A4B1F
:102A60009B68C3F30313094AD35CD840084B186032
:102A70000020FEF7C7FE002071E70120704701200B
:102A80006DE700BF003C0240003802409C0604088D
:102A900018000020014B1868704700BF1800002084
:102AA00008B5FFF7F7FF044B9B68C3F38223034A83
:102AB000D35CD84008BD00BF00380240AC06040813
:102AC00008B5FFF7E7FF044B9B68C3F34233034AA3
:102AD000D35CD84008BD00BF00380240AC060408F3
:102AE000F0B583B00446036813F0010F0CD0AF4B70
:102AF0009A6822F400029A609A68416B0A439A60CD
:102B0000436BC3B1002600E00026236813F4002FB6
:102B100015D0A64AD2F88C3023F44013E16B0B4356
:102B2000C2F88C30E36BB3F5801F06D0002B00F0A9
:102B30001B81002504E00126E7E70126F6E70025D2
:102B4000236813F4801F0FD0984AD2F88C3023F4F6
:102B50004003216C0B43C2F88C30236CB3F5800F1B
:102B600000F0048103B90125236813F0807F00D0B1
:102B7000012613F0200F40F0FB80236813F0100FA4
:102B80000CD08A4BD3F88C2022F08072C3F88C20B2
:102B9000D3F88C20A16B0A43C3F88C20236813F46C
:102BA000804F08D0814AD2F8903023F44033616ED0
:102BB0000B43C2F89030236813F4004F08D07B4ACF
:102BC000D2F8903023F44023A16E0B43C2F890302A
:102BD000236813F4803F08D0744AD2F8903023F46D
:102BE0004013E16E0B43C2F89030236813F4003FAA
:102BF00008D06E4AD2F8903023F44003216F0B4383
:102C0000C2F89030236813F0400F08D0674AD2F81A
:102C1000903023F00303616C0B43C2F890302368BB
:102C200013F0800F08D0614AD2F8903023F00C03E3
:102C3000A16C0B43C2F89030236813F4807F08D056
:102C40005A4AD2F8903023F03003E16C0B43C2F8BB
:102C50009030236813F4007F08D0544AD2F89030A3
:102C600023F0C003216D0B43C2F89030236813F4A6
:102C7000806F08D04D4AD2F8903023F44073616DD4
:102C80000B43C2F89030236813F4006F08D0474A12
:102C9000D2F8903023F44063A16D0B43C2F890301A
:102CA000236813F4805F08D0404AD2F8903023F4B0
:102CB0004053E16D0B43C2F89030236813F4005F7A
:102CC00008D03A4AD2F8903023F44043216E0B43A7
:102CD000C2F89030236813F4800F08D0334AD2F83A
:102CE000903023F08063A16F0B43C2F890302368CB
:102CF00013F4001F0DD02D4AD2F8903023F000635A
:102D0000E16F0B43C2F89030E36FB3F1006F00F056
:102D10009980236813F0080F00D0012513F4802F49
:102D200008D0224AD2F8903023F04073616F0B43F1
:102D3000C2F89030236813F4000F09D01B4AD2F870
:102D4000903023F08053D4F880100B43C2F89030B9
:102D5000002E79D12368B3F1007F75D0002D40F0AB
:102D60000681002003B0F0BD0125E9E60126F9E661
:102D70000E4B1A6C42F080521A641B6C03F08053A5
:102D80000193019B0A4A136843F480731360FEF7B2
:102D900075FD0746064B1B6813F4807F0AD1FEF7CA
:102DA0006DFDC01B6428F5D90320DBE70038024025
:102DB00000700040B34B1B6F13F4407315D0226BAF
:102DC00002F440729A4210D0AE4B1A6F22F4407255
:102DD000196F41F480311967196F21F48031196737
:102DE0001A671B6F13F0010F12D1236B03F44072AB
:102DF000B2F5407F1DD0A34A936823F4F813936083
:102E0000A0490B6F226BC2F30B0213430B67B4E6AE
:102E1000FEF734FD07469B4B1B6F13F0020FE4D106
:102E2000FEF72CFDC01B41F288339842F3D90320F2
:102E300098E79448826822F4F812934919400A43AB
:102E40008260DDE7012564E78E4A136823F0806322
:102E50001360FEF713FD06468A4B1B6813F0006FE4
:102E600006D0FEF70BFD801B6428F5D9032079E717
:102E7000236813F0010F13D0636B8BB9814AD2F82A
:102E80008430D2F88410606803F4403343EA80133E
:102E900001F070610B43A16843EA0173C2F884300A
:102EA000236813F4002F03D0E26BB2F5801F06D025
:102EB00013F4801F1ED0236CB3F5800F1AD1714A12
:102EC000D2F88430D2F88410606803F4403343EAC7
:102ED0008013E06843EA006301F0E0410B43C2F86D
:102EE0008430D2F88C3023F01F03616A01390B4320
:102EF000C2F88C30236813F0807F11D0614AD2F879
:102F00008400D2F88410666823691B0443EA8613A0
:102F100000F07060034301F0E0410B43C2F88430DD
:102F2000236813F0007F0DD0626823691B0443EA15
:102F30008213E26843EA0263A26843EA0273514AD9
:102F4000C2F884304F4A136843F080631360FEF781
:102F500095FC06464B4B1B6813F0006F7FF4FEAEEA
:102F6000FEF78CFC801B6428F4D90320FAE6454A5E
:102F7000136823F080531360FEF780FC0546414B35
:102F80001B6813F0005F06D0FEF778FC401B642836
:102F9000F5D90320E6E6236813F4002F01D0E26B95
:102FA00022B113F4801F1DD0236CDBB9354AD2F84F
:102FB0008830D2F88810606903F4403343EA801304
:102FC000A06943EA006301F0E0410B43C2F8883096
:102FD000D2F88C3023F4F853A16A013943EA012373
:102FE000C2F88C30236813F4001F03D0E36FB3F1F1
:102FF000006F31D0236813F0080F19D0214AD2F89E
:103000008810D2F88830606903F4403343EA8013B3
:1030100001F070610B43E16943EA0173C2F8883043
:10302000D2F88C3023F44033E16A0B43C2F88C3081
:10303000144A136843F080531360FEF71FFC0446E4
:10304000104B1B6813F0005F19D1FEF717FC001B33
:103050006428F5D9032085E60A4AD2F88800D2F818
:1030600088106569236A1B0443EA851300F07060C9
:10307000034301F0E0410B43C2F88830BAE7002077
:1030800070E600BF00380240FFFCFF0F70B4036A17
:1030900023F001030362036A42688569124C2C40E5
:1030A0000D68254323F002048B6823430F4C104E18
:1030B000B04218BFA0420CBF0124002405D123F068
:1030C0000803CE68334323F004032CB122F440728A
:1030D0004C6914438A692243426085614A684263AD
:1030E000036270BC704700BF8CFFFEFF0000014010
:1030F0000004014070B4036A23F480730362036A1E
:103100004268C569144C2C400E68264323F40073B2
:103110008C6843EA0423114C114DA84218BFA04209
:103120000CBF0124002406D123F40063CD6843EAD8
:10313000052323F480633CB122F440524C6942EAF7
:1031400004128C6942EA04124260C6614A68C26392
:10315000036270BC704700BF8CFFFEFF000001409F
:103160000004014070B4036A23F480530362036ACD
:103170004468C5690D4A2A400D6842EA052223F4D5
:1031800000538D6843EA0533094E0A4DA84218BF23
:10319000B04204D124F480444D6944EA851444606B
:1031A000C2614A680264036270BC7047FF8CFFFE14
:1031B000000001400004014070B4036A23F480332E
:1031C0000362036A4268446D0D4D25400C682C4330
:1031D00023F400338D6843EA05430A4E0A4DA842A2
:1031E00018BFB04204D122F480324D6942EA052270
:1031F000426044654A688265036270BC704700BFE4
:103200008FFFFEFF000001400004014070B4036A1C
:1032100023F480130362036A4468456D0D4A2A4013
:103220000D6842EA052223F400138D6843EA055332
:10323000094E0A4DA84218BFB04204D124F480249C
:103240004D6944EA8524446042654A68C265036268
:1032500070BC7047FF8FFFFE00000140000401407A
:1032600010B4036A046A24F001040462846924F03F
:10327000F00444EA021223F00A030B438261036262
:103280005DF8044B704710B4036A23F01003036227
:103290008469036A24F4704444EA023223F0A003F0
:1032A00043EA0113826103625DF8044B704783684F
:1032B00023F07003194341F007018160704700005B
:1032C0000268D36843F00103D36002689168064B3B
:1032D0000B40062B18BFB3F5803F03D0136843F0B3
:1032E000010313600020704707000100704770471A
:1032F00070477047704710B5044603681A6912F0AA
:10330000020F11D0DA6812F0020F0DD06FF0020236
:103310001A610123037703689B6913F0030F79D0C7
:10332000FFF7E6FF0023237723681A6912F0040FE2
:1033300012D0DA6812F0040F0ED06FF004021A6196
:103340000223237723689B6913F4407F68D02046CB
:10335000FFF7CEFF0023237723681A6912F0080FC6
:1033600012D0DA6812F0080F0ED06FF008021A615E
:10337000042323772368DB6913F0030F57D020461B
:10338000FFF7B6FF0023237723681A6912F0100FA6
:1033900012D0DA6812F0100F0ED06FF010021A611E
:1033A000082323772368DB6913F4407F46D0204647
:1033B000FFF79EFF0023237723681A6912F0010F9D
:1033C00003D0DA6812F0010F3FD123681A6912F0B6
:1033D000800F03D0DA6812F0800F3DD123681A699C
:1033E00012F4807F03D0DA6812F0800F3BD123689B
:1033F0001A6912F0400F03D0DA6812F0400F39D189
:1034000023681A6912F0200F03D0DA6812F0200F37
:1034100037D110BDFFF76BFF2046FFF76AFF81E74A
:103420002046FFF764FF2046FFF763FF92E7204640
:10343000FFF75DFF2046FFF75CFFA3E72046FFF79D
:1034400056FF2046FFF755FFB4E76FF001021A61FF
:10345000204606F01FFFB8E76FF080021A61204691
:1034600000F04DFABAE76FF480721A61204600F05E
:1034700047FABCE76FF040021A612046FFF73AFFB7
:10348000BEE76FF020021A61204600F037FAC0E76D
:1034900070B403683A4CA04214BF00240124B0F178
:1034A000804F14BF224644F00102AAB9354DA8420C
:1034B00014BF00250125344EB0420DD065B905F189
:1034C000804505F58235A84214BF0025012506F583
:1034D0000066B04200D01DB123F070034D682B434D
:1034E000002A33D1274A904214BF00220122264DE0
:1034F000A8422BD052BB02F1804202F582329042A8
:1035000014BF0022012205F50065A8421ED0EAB9C9
:103510001E4A904214BF0022012205F59A35A842A6
:1035200014D09AB91A4A904214BF0022012205F51C
:103530000065A8420AD04AB9164A904214BF002238
:103540000122A5F59635A84200D01AB123F44073A4
:10355000CA68134323F080034A69134303608A68EF
:10356000C2620A6882620C4B984214BF234644F040
:1035700001030BB10B6903630123436170BC704706
:1035800000000140000800400004004000440140E9
:10359000001800400020004000040140A8B110B510
:1035A000044690F83D305BB1022384F83D30211D84
:1035B0002068FFF76DFF012384F83D30002010BD27
:1035C00080F83C3006F096FEEEE701207047A8B187
:1035D00010B5044690F83D305BB1022384F83D30CD
:1035E000211D2068FFF754FF012384F83D3000209F
:1035F00010BD80F83C30FFF779FEEEE70120704700
:1036000070B4036A23F010030362036A4268856999
:10361000144C2C400D6844EA052523F020038C68E7
:1036200043EA0413104C114EB04218BFA0420CBF25
:103630000124002406D123F08003CE6843EA061358
:1036400023F040033CB122F440624C6942EA840218
:103650008C6942EA8402426085614A68826303623F
:1036600070BC7047FF8CFFFE000001400004014069
:1036700038B590F83C30012B00F092800D4604469E
:10368000012380F83C30022380F83D30142A1ED8F4
:10369000DFE802F00B1D1D1D241D1D1D381D1D1D05
:1036A0004B1D1D1D5F1D1D1D72000068FFF7EEFC08
:1036B0002268936943F0080393612268936923F0B9
:1036C000040393612268936929690B439361012381
:1036D00084F83D30002084F83C0038BD0068FFF7D6
:1036E0008FFF2268936943F40063936122689369B2
:1036F00023F48063936122689369296943EA012373
:103700009361E4E70068FFF7F5FC2268D36943F0B2
:103710000803D3612268D36923F00403D3612268CC
:10372000D36929690B43D361D1E70068FFF71AFD1C
:103730002268D36943F40063D3612268D36923F418
:103740008063D3612268D369296943EA0123D36185
:10375000BDE70068FFF730FD2268536D43F00803B2
:1037600053652268536D23F0040353652268536D3B
:1037700029690B435365AAE70068FFF747FD2268F4
:10378000536D43F4006353652268536D23F48063E3
:1037900053652268536D296943EA0123536596E70F
:1037A00002209AE710B4846824F47F4442EA032399
:1037B0000B43234383605DF8044B704790F83C3023
:1037C000012B64D010B50446012380F83C3002235D
:1037D00080F83D30026890682E4B034093600B6880
:1037E000402B4AD013D9602B3DD01ED9702B28D046
:1037F000B3F5005F30D1CB684A6889682068FFF76D
:10380000D1FF2268936843F48043936024E0102B37
:1038100006D004D9202B03D0302B01D01CE0DBB91B
:1038200019462068FFF743FD16E0502B14D1CA68F3
:1038300049682068FFF714FD50212068FFF737FD25
:103840000AE0CB684A6889682068FFF7ABFF226806
:10385000936843F077039360012384F83D300020A0
:1038600084F83C0010BDCA6849682068FFF70BFD6A
:1038700060212068FFF71BFDEEE7CA6849682068F1
:10388000FFF7EEFC40212068FFF711FDE4E702207E
:10389000704700BF8800FEFF90F83C30012B27D016
:1038A00070B4012380F83C30022380F83D30036877
:1038B0005A689D680F4E104CA34218BFB34203D103
:1038C00022F470024C68224322F070020C682243FA
:1038D00025F08004896821435A60036899600123B8
:1038E00080F83D30002380F83C30184670BC7047AB
:1038F00002207047000001400004014070477047FB
:103900007047000010B5044683680269134342699A
:103910001343C269134301680868994A024013437C
:103920000B602268536823F44053E1680B435360F3
:10393000A269236A1A4321688B6823F43063134316
:103940008B6023688F4A934218D08F4A934228D0C5
:103950008E4A93423DD08E4A934250D08D4A934234
:1039600062D08D4A934277D08C4A934200F08C808B
:103970008B4A934200F0A0801023B6E0894BD3F825
:10398000903003F00303032B09D8DFE803F00204AF
:10399000AD060123A9E00423A7E00823A5E0102336
:1039A000A3E0804BD3F8903003F00C030C2B0ED81F
:1039B000DFE803F0070D0D0D090D0D0DA90D0D0D1F
:1039C0000B00002391E004238FE008238DE01023F7
:1039D0008BE0744BD3F8903003F03003102B0AD0F7
:1039E00006D9202B00F09180302B06D108237CE0F3
:1039F0001BB9002379E0042377E0102375E0694BBD
:103A0000D3F8903003F0C003402B09D005D9802BA8
:103A10007DD0C02B06D1082367E01BB9002364E0EA
:103A2000042362E0102360E05E4BD3F8903003F48F
:103A30004073B3F5807F0BD007D9B3F5007F68D012
:103A4000B3F5407F06D108234FE01BB900234CE0BB
:103A500004234AE0102348E0524BD3F8903003F49B
:103A60004063B3F5806F0BD007D9B3F5006F52D028
:103A7000B3F5406F06D1082337E01BB9012334E0CA
:103A8000042332E0102330E0464BD3F8903003F4A7
:103A90004053B3F5805F0BD007D9B3F5005F3CD03E
:103AA000B3F5405F06D108231FE01BB900231CE0DB
:103AB00004231AE0102318E03A4BD3F8903003F4B3
:103AC0004043B3F5804F0BD007D9B3F5004F26D054
:103AD000B3F5404F06D1082307E01BB9002304E0EB
:103AE000042302E0102300E00223E269B2F5004F54
:103AF00017D0082B00F2B380DFE803F0768B95B186
:103B00009EB1B1B1A8000223EFE70223EDE7022343
:103B1000EBE70223E9E70223E7E70223E5E70223D5
:103B2000E3E7082B5DD8DFE803F0051F3F5C485C46
:103B30005C5C5300FEF7B4FF6268530803EB40037C
:103B4000B3FBF2F39BB20020A3F110014FF6EF722A
:103B5000914200F287809AB222F00F02C3F342032F
:103B600013432268D36050E0FEF7AAFF626853084F
:103B700003EB4003B3FBF2F39BB20020E4E700BF8A
:103B8000F369FFEF0010014000440040004800408E
:103B9000004C0040005000400014014000780040FC
:103BA000007C0040003802406268304B03EB520357
:103BB000B3FBF2F39BB20020C6E7FEF74DFE62684E
:103BC000530803EB4003B3FBF2F39BB20020BBE7C7
:103BD0006268530803F58033B3FBF2F39BB2002015
:103BE000B2E701200023AFE7FEF75AFF626800EB5F
:103BF0005203B3FBF2F39BB20020A3F110014FF686
:103C0000EF72914230D82268D36000232366636646
:103C100010BDFEF755FF626800EB5203B3FBF2F3F1
:103C20009BB20020E9E76268114B03EB5203B3FB40
:103C3000F2F39BB20020E0E7FEF70EFE626800EBB5
:103C40005203B3FBF2F39BB20020D6E7626853083D
:103C500003F50043B3FBF2F39BB20020CDE7012054
:103C60000023CAE70120D0E70120CEE70048E801A1
:103C70000024F400436A13F0010F06D00268536871
:103C800023F40033816A0B435360436A13F0020F3D
:103C900006D00268536823F48033C16A0B43536033
:103CA000436A13F0040F06D00268536823F480239C
:103CB000016B0B435360436A13F0080F06D0026890
:103CC000536823F40043416B0B435360436A13F082
:103CD000100F06D00268936823F48053816B0B4366
:103CE0009360436A13F0200F06D00268936823F4B0
:103CF0000053C16B0B439360436A13F0400F0AD02B
:103D00000268536823F48013016C0B435360036C07
:103D1000B3F5801F0BD0436A13F0800F06D0026802
:103D2000536823F40023816C0B435360704702688F
:103D3000536823F4C003416C0B435360EBE72DE958
:103D4000F04105460F4616469846069C2B68DB69EF
:103D500037EA03030CBF01230023B3421CD1B4F1A3
:103D6000FF3FF3D0FDF78AFDA0EB0800A04201D889
:103D7000002CEBD12A68136823F4D07313602A68EF
:103D8000936823F00103936020236B67AB670023E4
:103D900085F87030032000E00020BDE8F08110B508
:103DA00082B004460023C367FDF768FD22681268ED
:103DB00012F0080F07D120236367A367002084F85F
:103DC000700002B010BD6FF07E43009303460022E6
:103DD0004FF400112046FFF7B2FF0028EBD003207C
:103DE000EFE768B310B50446436F03B3242363675A
:103DF0002268136823F0010313602046FFF782FD59
:103E0000012813D0636ABBB92268536823F4904336
:103E100053602268936823F02A0393602268136832
:103E200043F0010313602046FFF7B9FF10BD80F88F
:103E3000703006F0C1FAD9E72046FFF71BFFE3E731
:103E40000120704740BA80B27047030203F47F0339
:103E500043EA0063020A02F47F42134343EA10601C
:103E6000704708B500F078F800F04AFA00F09DFAC3
:103E700003F036FF01F020F803F0BEFE08BD00009D
:103E800010B504462D4B1B68834231D82B4B5B6821
:103E9000A34235D92379002B3AD12388B3F5C86FD3
:103EA0003ED8264B1B6821885A1894420FD01079AF
:103EB00068B922484068904209D020488068904202
:103EC00036D05A5A2280E01A5A5A1A4450806188D1
:103ED0005A1894420BD0107948B918488068A0420B
:103EE00029D020885852D21A21880B445A8010BDFC
:103EF000134B40F25D121349134806F0EFFCC5E77F
:103F00000F4B4FF4AF7211490F4806F0E7FCC1E7C1
:103F10000B4B40F25F120E490B4806F0DFFCBCE78A
:103F2000074B4FF4B1720B49074806F0D7FCB8E7CE
:103F3000024A9460C5E701488260D2E7A0000020F1
:103F4000B8060408E806040800070408280704085F
:103F5000440704086007040810B40B4B23F0030364
:103F60000A4A13604FF4C860188000215980197103
:103F70001918516001240C71A3F840064880936021
:103F80005DF8044B704700BF47020020A0000020EE
:103F900000283DD038B5044610F0030F28D11D4B42
:103FA0001B68A34203D81B4B5B68A34206D81A4B7D
:103FB00040F2AF1219491A4806F090FC154B1B68E5
:103FC000A34214D8134B5B68A34210D9A4F108058F
:103FD00014F8043CA3B1002304F8043C0D4B9B6887
:103FE000AB4201D90B4B9D602846FFF749FF38BD16
:103FF000094B4FF4D6720B49094806F06FFCCEE727
:10400000054B4FF4E0720849054806F067FCE2E70B
:10401000704700BFA0000020B8060408B0070408DD
:10402000000704088C070408C8070408F8B505460B
:10403000CC1CA4B224F00304A4B20B2C04D9B4F514
:10404000C86F02D9002543E00C24384B1B68AB42F3
:1040500003D8364B5B68AB4206D8354B4FF4FA7247
:104060003449354806F03AFC304B1B68AB422FD838
:104070002E4A5268AA422BD9A5F10807FF1ABFB2EF
:1040800035F8086CF61BB6B2083EB6B2B44221D879
:10409000B44249D81CD0254B1A6835F8083CD118D1
:1040A000087918BBD05AE3199BB208339BB21F4C56
:1040B000A4688C4216D0D11800240C71D0524F80C5
:1040C00025F8083CD15AB1F5C86F01D00A44538095
:1040D0002846F8BD164B40F206221849164806F04D
:1040E000FDFBD5E7D118114CA160E4E704F11403FE
:1040F000B342EDD8E3199BB208339BB2D1180B48F9
:104100008068884201D9094881600020087135F82B
:10411000080CD0524F8025F8083CD15AB1F5C86F31
:10412000D6D00A445380D3E70025D1E7A000002071
:10413000B8060408DC07040800070408F4070408AC
:10414000002800F083800246033292B222F003027C
:1041500092B20B2A04D9B2F5C86F02D90020704779
:104160000C22F8B53A4B1E689B689B1B9BB244E03F
:1041700001232371364B9B68A34210D02544083598
:10418000334B5B689D421FD814F0030524D15DBBFF
:1041900004F1080059E02E4A12681B8813441A796A
:1041A0001AB12B4949689942F5D129498B60496870
:1041B0009942E3D0002AE1D0264B40F2CF22264993
:1041C000264806F08BFBD9E7224B4FF43572244981
:1041D000224806F083FBD7E71E4B40F2D622214946
:1041E0001E4806F07BFBD2E71A4B4FF436721E498D
:1041F0001A4806F073FBCBE723881F461546C2F525
:10420000C860834220D2F41820790028F4D1F15AF2
:10421000C91B0839A942EFD305F114008142A7D385
:104220001A4492B2083292B2B11800200871208864
:10423000B0524B80228001232371B35AB3F5C86F6B
:1042400098D01E44728095E70020F8BD002070478A
:10425000A0000020B8060408140804080007040899
:1042600030080408600804089008040810B5836842
:104270001C6874B122681A6014F0030F01D1204643
:1042800010BD054B40F249120449054806F026FBD3
:10429000F5E70024F3E700BFB4080408E4080408C5
:1042A0000007040838B505460C4611F0030F05D188
:1042B000AB681B682360AB681C6038BD034B40F2E1
:1042C0009D120349034806F009FBF1E7B40804080E
:1042D0000809040800070408836800221A6043687C
:1042E000033323F0030307E08168096819608168DC
:1042F0000B6001880B44013241889142F4DC704725
:1043000010B5002406E0054B53F82400FFF7E4FF46
:104310000134A4B2082CF6D910BD00BF88050408EA
:1043200008B5082805D8074B53F82000FFF79EFF73
:1043300008BD054B40F287120449054806F0CEFA45
:104340000020F5E788050408B40804083C090408BF
:104350000007040808B5082806D821B1064B53F811
:104360002000FFF79FFF08BD044B40F2DB12044919
:10437000044806F0B3FAF6E788050408B408040810
:104380005C0904080007040811F0010F0CD008B5FF
:10439000436823B190F82B3013F0080F00D108BD0B
:1043A000011D04F0E9F8FAE77047704770B582B074
:1043B0000D46C1B10A68019242680199914210D03C
:1043C0000446061D01A9304601F062FB01A93046F2
:1043D00003F068FE5DB12B68636001212046FFF7A2
:1043E000D3FF02B070BD034A12680192E4E70023D4
:1043F000F2E700BF8806040811B10B68C36070477C
:104400000023FBE711B10B68836070470023FBE7D3
:10441000F8B5044617461E460D4609B10B6863B948
:1044200029462046FFF7C2FF39462046FFF7EAFF3C
:1044300031462046FFF7E0FFF8BD1146FFF7E2FFE7
:1044400031462046FFF7D8FF29462046FFF7AEFF4A
:10445000F2E700002DE9F04104460E461746984663
:10446000079D15B300236360A360E36084F82B30DD
:10447000032384F82030069BE361104A1378591C0B
:10448000117084F82E30089B236143463A4631462A
:104490002046FFF7BDFF2046A84768B9084B1A68B9
:1044A00022601C602046BDE8F081064BFB220649D5
:1044B000064806F013FAD5E70020F4E7D000002004
:1044C0004C37002078090408AC09040800070408E8
:1044D000014B1860704700BF5037002008B590F8B6
:1044E0002B3013F0010F06D143F0010380F82B307D
:1044F00013F0040F00D108BD0321FFF745FFFAE7D1
:1045000008B590F82B3013F0010F06D003F0FE032E
:1045100080F82B3013F0080F00D108BD03F0B4FF72
:10452000FBE708B590F82B3013F0040F06D143F0E9
:10453000040380F82B3013F0010F00D108BD0321D4
:10454000FFF722FFFAE790F82B3013F0040F03D0A7
:1045500023F0040380F82B3070470000014B012248
:104560001A7070475437002070B50C461646054641
:1045700018B3B5FA85F35B09002C08BF0123002BA3
:1045800051D1002C21DBA1B22B7B6868032B14BF17
:1045900000220122002B08BF012242B3031B6B60E3
:1045A00005F1100293421FD3A4B26B8923446B819F
:1045B0002B891C442C81002036E01D4B40F23F2209
:1045C0001C491D4806F08AF9D3E7A1B2494289B2D5
:1045D0006B898B42D8D2164B40F2472217491648B6
:1045E00006F07CF901201FE0686001201CE0013B1F
:1045F0009BB2012B0ED8002C06DB002E18BF002C1E
:1046000013DD001B6860CFE76B898B42F5D3001B7D
:104610006860C9E7064B40F277220949064806F070
:104620005DF9012000E0002070BD0120FCE700BF23
:10463000C4090408F409040800070408000A04086F
:10464000200A040870B5049C04280AD8DFE800F0AA
:104650001214030507000E200FE000200DE00020DB
:104660000BE0134B40F2C5121249134806F036F91D
:10467000002017E0362000E02220033020F0030065
:104680000E18BDF81450AE4210D800251D6054B16C
:104690002044586002205873198159811A730122ED
:1046A000DA81184670BD00205860F3E70020F9E772
:1046B000C4090408300A04080007040808B50022E9
:1046C000FFF752FF08BD08B50122FFF74DFF08BDF7
:1046D00070B528B10446037B032B0BD800251FE0DF
:1046E000274B40F2D2222749274806F0F7F8002549
:1046F000284670BD224B40F2DE222449224806F0B3
:10470000EDF8EBE71E4B40F2EB2221491E4806F084
:10471000E5F80AE02369204698470135EDB23446B2
:10472000002CE5D0E389002BECD0E389013B9BB260
:10473000E381002BDCD12668237B627B12F0020F21
:104740000AD02369002BE5D10D4B40F2F922114923
:104750000D4806F0C3F8DDE7032B07D0013B9BB201
:10476000012B08D92046FFF713FCD6E72146082085
:10477000FFF7F0FDD1E721460720FFF7EBFDCCE77F
:10478000C4090408F409040800070408540A0408CA
:104790006C0A0408840A04082DE9F8430E461746FB
:1047A00004280AD8DFE800F01214030507000E24DD
:1047B0000FE000240DE000240BE0644B4FF48B72FB
:1047C0006349644806F08AF80025B1E0362400E029
:1047D0002224032F00F2AF80DFE807F07B9B9B02CF
:1047E0000820FFF79DFD0546F8B10773002303601D
:1047F00004F110030344033323F0030343600681F1
:10480000E21C22F00302C2F51472B24228BF324603
:1048100092B24281134400F51878434508D8012329
:10482000EB816B89F61AA9462DE0FFF797FE7FE032
:10483000464B4FF498724849464806F04FF8EEE769
:10484000FFF78CFE2846FFF743FF254670E03F4BFD
:104850004FF4A67241493F4806F040F825E03B4B33
:104860004FF4A9723E493B4806F038F82BE0374B2D
:1048700040F255123849374806F030F80123E381F9
:104880006389F61AA146002E4EDD0820FFF748FD89
:1048900004460028D4D00773002343730360C9F88B
:1048A00000004FF6FE739E42D1DCB3B22381B3F514
:1048B000147F28BF4FF41473638104F11003636005
:1048C00013F0030FCBD16B686A8913449845D5D296
:1048D000CDE704F1130020F0030083B2F21C90B284
:1048E00020F00300184480B222F0030290422BD340
:1048F000FFF726FC0546D8B104F110030344033347
:1049000023F003034360068146810023036007739D
:104910000AE00720FFF704FD054648B10023436085
:1049200006814681036007730123EB8100236B73CB
:104930002846BDE8F883054B4FF4C672094905487F
:1049400005F0CCFF0025F3E70025F1E7C4090408D2
:10495000A80A040800070408C40A04082C0B040869
:10496000400B0408700B04082DE9F0410E46044684
:1049700070B1237B032B18BF012B02D00BB1022B8C
:104980000ED12789B74243D9A6EB0708354616E072
:104990002A4B40F2F3122A492A4805F09FFFE8E724
:1049A000264B40F2F7122849264805F097FFE8E722
:1049B000F31B228912FA83F32381246884B163896B
:1049C000AB4215D2ED1AADB24FF6FE739845EFDD4E
:1049D0001A4B40F20B221D491A4805F07FFFE7E70A
:1049E000164B40F20F221A49164805F077FFE6E70A
:1049F000227B2AB9AB4203D0637B13F0020F09D0AC
:104A000065812581206808B1FFF762FE00232360DD
:104A1000BDE8F08163681B1B15FA83F189B220465B
:104A2000FFF704FB04460028EAD1044B40F21D22A4
:104A30000849044805F052FFE2E700BFC409040832
:104A40008C0B040800070408A40B0408C00B04081E
:104A5000D40B0408EC0B0408002302E001339BB2E2
:104A600000680028FAD118467047000070B108B5F8
:104A7000C38901339BB2C38103B108BD044B40F22B
:104A800039320449044805F029FFF6E7704700BFB2
:104A9000C4090408080C04080007040838B50446D3
:104AA0000D46B1FA81F14909002808BF012161B121
:104AB000154B40F24D321549154805F00FFF19E02E
:104AC0002B8921890B44238114462268002AF7D1BF
:104AD000228963899A420ED1236833B10A4B40F28E
:104AE00056320C490A4805F0F9FE2B8922891344F5
:104AF0002381256038BD044B40F2553206490448F5
:104B000005F0ECFEE8E700BFC40904081C0C04082B
:104B100000070408840C0408540C040810B50C4663
:104B2000FFF7BCFF2046FFF7A1FF10BD2DE9F041C4
:104B30000D46B1FA81F14909002808BF012141B9A8
:104B4000074602892B899A4203D34FF00008464654
:104B50003FE03F4B40F2BD323E493F4805F0BEFECC
:104B60006FF00F0071E09B1B9CB23AE0384B40F2B3
:104B7000CD323A49384805F0B1FE41E0344B40F2BD
:104B8000CE323749344805F0A9FE3CE03F682B1C83
:104B900018BF0123002F18BF00230BB900263BE0EC
:104BA0002B4B4FF476722F492B4805F097FE6FF090
:104BB0000F004AE02B68002B33D0254B40F2DE3249
:104BC0002949254805F08AFE6FF005003DE0002DDB
:104BD0003AD07B89991B6C89A4EB08029142C2DB15
:104BE00094B27868696822464144304405F063FE17
:104BF0002644B6B244441FFA84F87B89B342B5D345
:104C00006B894345BAD36B89434502D82D684FF071
:104C100000087B89B342B9D01DB16A892B899A42B9
:104C2000C8D0002FD3D07A893B899A42CFD13B6834
:104C3000002BCCD0064B40F2E3320B49064805F07E
:104C40004DFE6FF0050000E00020BDE8F08100BFE0
:104C5000C4090408D00C040800070408000D040867
:104C6000180D0408340D0408440D04082DE9F04122
:104C700028B10F469046054661B1002627E01C4B3F
:104C800040F2FE321B491C4805F028FE0026304643
:104C9000BDE8F081164B40F2FF321849164805F086
:104CA0001DFE0026F3E76A89D21A94B2A04500D20D
:104CB0004446696822461944B81905F0FCFD2644AB
:104CC000B6B2A8EB04041FFA84F800232D682A1C4E
:104CD00018BF0122B8F1000F08BF0022002AD6D069
:104CE000002BE0D069899942DDD85B1A9BB2EDE7D1
:104CF000C4090408700D040800070408900D040896
:104D00002DE9F84348B188469146064679B10389B2
:104D1000934216D31446002730E0234B40F28442DE
:104D20002249234805F0DAFD6FF00F0031E01E4BF9
:104D300040F285421F491E4805F0D0FD6FF00F007C
:104D400027E0194B40F286421B49194805F0C6FD81
:104D50004FF0FF301DE0144B40F28E4217491448CB
:104D600005F0BCFD0DE02A4608EB0701706805F070
:104D7000A2FD641BA4B22F44BFB2366834B1002E2A
:104D8000E9D07589A542EED32546ECE74F4502D11F
:104D90000020BDE8F883044B40F2994208490448DA
:104DA00005F09CFD0020F4E7C4090408B40D0408D4
:104DB00000070408CC0D0408E80D0408080E0408D8
:104DC000200E040800E0C06828B1836F8B42FAD13E
:104DD00000238367F7E7704738B5054620B12B7D80
:104DE000012B08D1012415E00C4BC0220C490D48C1
:104DF00005F074FDF3E7094BC1220B49094805F0A2
:104E00006DFDEFE7094B53F8243029461868FFF78A
:104E1000D9FF0134032CF5D938BD00BF4C0E04086E
:104E20007C0E040800070408880E0408180604080D
:104E300038B5044640B1237D042B1AD0072B21D06E
:104E4000032B09D0002512E0184B40F24D121849EF
:104E5000184805F043FDEEE7204602F047FB054603
:104E600008B905232375B5B1B5F1FF3F17D0284622
:104E700038BD204602F03AFB05460028F3D1052351
:104E80002375F0E7204602F031FB05460028EAD101
:104E900009232375E7E7204602F084FBE7E7A37EBA
:104EA00043F00803A3760025E1E700BF4C0E040899
:104EB0007C0E0408000704087047000038B5456AF6
:104EC000048D2A19C16A438EB3F5866F94BFCB183F
:104ED00001F58663D31A002B02DB4485501A38BDD6
:104EE0006B1A002B03DD002242851046F7E70446CB
:104EF0004D1BB5F5803F02D265850020EFE7044BDE
:104F00004FF442720349044805F0E8FCF4E700BF9F
:104F10004C0E0408EC0E04080007040838B50546DA
:104F20000C46037D012B10D0298D214489B229859F
:104F3000B1F5066F11D94FF406632B852846FFF7AC
:104F4000BDFFB0F5067F1BDA38BD114B4FF4487238
:104F50001049114805F0C2FCE6E70029EED12B7D8F
:104F6000092B18BF072B03D14FF406632B85E5E708
:104F7000074B40F22D320949074805F0AFFCDDE749
:104F8000AB7E43F00203AB76284602F00BFBDBE777
:104F90004C0E0408080F040800070408300F04082A
:104FA00050B110B50446406808B1FFF791FB2146A7
:104FB0000320FFF7CFF910BD704738B110B5046872
:104FC000FFF7EEFF2046002CF9D110BD704738B531
:104FD00005460320FFF7A4F9044650B12868696824
:104FE000AA68EB6820606160A260E3606068FFF718
:104FF0003DFD204638BD38B5027DB2F10A0318BF29
:105000000123002A08BF0023D3B1012A18D0044687
:10501000406F18B1FFF75CFB00236367206FFFF759
:10502000CCFF002525674FF6FF732386A06EFFF7A0
:10503000C4FFE06EFFF7C1FFA566E566A4F8645003
:1050400038BD00002DE9F04182B0AD4A136801334C
:105050001360AC4A137801331370AB4B1C68002605
:105060006EE1AA4B4FF47C72A949AA4805F036FCC0
:105070006BE1A64B40F2F132A749A64805F02EFCA1
:1050800067E1A24B40F2F232A449A24805F026FCA7
:1050900063E1E46854E194F84220052A40F2688113
:1050A00001254AE0204602F0AFFC002862D100232F
:1050B00084F8943094F89530062B5DD8013384F849
:1050C0009530002539E0B4F93010002901DB0131B9
:1050D0002186E16E89B3B4F93000B4F940108842FA
:1050E0002BDB022B0FD0B4F93C10B4F93E3003EBAC
:1050F000E1038B490C2A94BF8A1801F10C02127E3D
:105100009340A4F8403000232386B4F85C30B4F810
:105110004820934228BF13465B08A4F84A30618EAA
:105120004A0092B2934201D2A4F84A20A4F848104F
:10513000204602F0CDFB00E00125237D062B1DD08B
:10514000227A12F0080F3FD0072B18BF042B6ED124
:105150006B4B1A68236AD21AD4F89010714B0B4427
:105160007148A0FB0303B2EB531F14D90135EDB214
:1051700001272AE00025E0E70025DEE7A27E12F005
:10518000100FDDD0216A5E4A1268521A282AD7D938
:105190000135EDB2D4E794F89630644800FB031370
:1051A0006149A1FB0313B2EB531F01D800270CE0A8
:1051B000204602F0FDFB00283BD194F896300133E5
:1051C00084F89630002700E00027206F50B14C4B48
:1051D0001A68236AD21AB4F9403003EB430359002A
:1051E0008A4228D2237D032B2AD0092B31D0002DCF
:1051F00038D1E568E37E0133DBB2E376227F934268
:10520000C0F09C800023E376494A1370D4F88830BC
:10521000002B6CD0214620699847454B1B78002B0A
:105220007FF41BAF002864D026462C4688E0002778
:10523000CBE70027C9E7FFF7C0FE00232367D1E7CC
:10524000216A2F4A1268521A282ACED90135EDB2A6
:10525000CBE7226A2A4B1B689B1AF02BC7D9013572
:10526000EDB2C4E7D4F88C502046FFF7C4FE26B355
:10527000254B1B68A34218D0E368F36067BBD4F8E2
:105280001080E76821460120FFF764F8284B0022D0
:105290001A701DB16FF00C014046A847244B1B78D3
:1052A000002B7FF4DAAE3C464AE0184B40F28942CC
:1052B0002049184805F012FBDEE7134B1B68A34298
:1052C00006D0124B40F28D421B49124805F006FBF6
:1052D000E2680D4B1A60D1E7616AE06C238B0193A1
:1052E000E38A0093231D224602F09CFAC7E70020C0
:1052F00093E7204602F056F926462C4620E000BFF0
:1053000060370020D10000205C3700204C0E0408DC
:10531000EC0F0408000704081810040844100408DF
:1053200018060408B84C0A00D34D6210F824010096
:105330005837002074100408A010040826462C4694
:1053400094B3237D002B3FF48CAE237D012B3FF4DF
:1053500090AE237D0A2B3FF494AE627F344B1B78D2
:105360009A423FF496AE6377237D022B3FF493AECF
:1053700094F842200B2A3FF6DFAE94F89550002DAA
:105380003FF4A1AE013D2B4B1D442A7C94F8943090
:10539000934202D2013384F8943094F894309342CB
:1053A000BFF480AE0025C8E6234B1D6807E02A6ADB
:1053B000224B1B689B1AF02B0ED82C46ED68002D53
:1053C00032D02B7D0A2BF2D01D4B40F2BD421D493D
:1053D0001D4805F083FAEAE72846FFF70CFEA4B162
:1053E000154B1B68AB4208D0EB68E360EE682946BA
:1053F0000120FEF7AFFF3546E1E7114B40F2CB420B
:105400001249114805F06AFAEEE70B4B1B68AB42F4
:1054100006D00B4B40F2CF420D490B4805F05EFA27
:10542000EA68054B1A60E1E702B0BDE8F08100BF11
:10543000D1000020180604086C37002060370020D7
:105440004C0E0408CC10040800070408FC100408E3
:105450002411040810B50C4603688B4205D04BB1EB
:10546000DA68A24204D01346F9E7DB68036001E082
:10547000E268DA600023E3602046FFF7BCFD237D8D
:105480000A2B18BF012B03D0A37E13F0010F21D1EB
:10549000237D012B1AD0A36E33B1124B40F253720D
:1054A0001149124805F01AFAE36E33B10D4B40F280
:1054B00054720F490D4805F011FA236F33B1094BAF
:1054C00040F256720B49094805F008FA002323758B
:1054D000E38210BD43F00203A376204602F062F897
:1054E000D6E700BF4C0E04084C110408000704085E
:1054F000641104088011040810B582B0044629B371
:10550000037D072B18BF042B20D1436FD3B1A37E9B
:1055100013F0100F25D0238B0193E38A0093231DF2
:105520002246616AE06C02F07DF92046FFF763FDD8
:105530003D4B1B68A3421CD00BB3DA68A2421CD0BF
:105540001346F9E7038DB3F5066FE0D1237D012BF8
:1055500050D0002B33D0022B59D02046FFF768FCE7
:1055600046E0324B40F20F123149324805F0B6F9AD
:10557000D1E7DA682C4B1A6001E0E268DA600023B8
:10558000E3602D4B01221A70237D042B09D02B4B95
:105590001B68A3420FD021460120FEF7DBFE00204E
:1055A00026E00A232375264B1A68E2601C6002F08D
:1055B000E9FA00201CE001F0DFFD002018E0E38A9A
:1055C0008BB1204B1B68A34205D053B1DA68A242CD
:1055D00005D01346F9E7DA681A4B1A6001E0E26871
:1055E000DA600023E36021460120FEF7B3FE0020CD
:1055F00002B010BD2046FFF7EFFB21461248FFF72F
:1056000029FF21460220FEF7A5FE0020F0E72146F3
:105610000548FFF71FFF0120074B18702146FEF7D2
:1056200099FE0020E4E700BF5C3700204C0E040820
:10563000981104080007040858370020703700202C
:105640006C370020683700206437002008B5037DE0
:10565000012B03D0837E43F0100383760121FFF7F3
:105660004BFF08BD10B5084612B953B1002007E042
:1056700014461189FFF752FC2046FFF729F8002055
:1056800010BDFFF7E3FFFBE7F8B50446466F777BF5
:1056900000234367D0F88050DDB1324601460069EF
:1056A000A8470546EDB917F0200F20D0238DB3F59C
:1056B000066F01D001332385D4F88060BEB100238A
:1056C0001A4621462069B04710F10D0F0FD105464B
:1056D0000DE00023324601461846FFF7C3FF05469A
:1056E000E0E715F10D0F02D066676FF0040528465C
:1056F000F8BD000070B51C4A1378013313701B4BC2
:105700001C6813E043F00203A376204601F04AFF31
:10571000A37E23F00303A37613E023F00803A3760C
:105720002046FFF785FB10E0E5682C46DCB1627F80
:105730000D4B1B789A42F7D06377A37E13F0010FCD
:10574000E0D1A37E13F0080FE7D1E568636F002B6B
:10575000EBD0074E002333702046FFF795FF3378D8
:10576000002BE2D0CBE770BDD10000205C370020D9
:105770005837002008B5FFF7BDFF064A53780133BC
:10578000DBB2537013F0010F00D108BDFFF75AFCD4
:10579000FBE700BFD10000202DE9F04782B00446AE
:1057A0000D46037D012B1AD0237D0A2B1FD0D4F880
:1057B0004C80D4F82490D4F88C602769002B41D118
:1057C000B4F816A0BAF1000F46D02A4B1B68A342CA
:1057D00016D0DBB1DA68A24216D01346F9E7264BA1
:1057E0004FF4F0722549264805F078F8DCE72146A9
:1057F0002448FFF72FFE21460120FEF7ABFD1EE0F7
:10580000DA681C4B1A6001E0E268DA600025E560A6
:10581000AA46E06E08B1FFF7D0FBA06E08B1FFF713
:10582000CCFB206F08B1FFF7C8FBBDB921460120B2
:10583000FEF790FD1EB16FF00C013846B04702B084
:10584000BDE8F087B4F816A021460F48FFF702FE26
:105850000E4B01221A70DCE70025DAE7238B019357
:10586000CDF800A0231D22464946404601F0DAFF4C
:10587000DCE700BF683700204C0E0408B4110408B0
:10588000000704086C3700205C37002058370020E0
:1058900008B50121FFF780FF08BD000010B50A4BD5
:1058A0001B680024204600E0DB6843B1196A074A00
:1058B0001268521AA242F7D314461846F4E708B108
:1058C000FFF7E6FF10BD00BF6C37002060370020F7
:1058D00070B5024610F0800F00D07F220B4B1B6882
:1058E000002420461BB908B1FFF7D2FF70BD5D7DD3
:1058F000954208D81E6A06490968891BA14202D34D
:105900002A460C461846DB68ECE700BF5C370020EF
:105910006037002038B50446084603E0C568FFF745
:10592000B7FF284628B1026823689A42F6D0C068BB
:10593000F8E738BD38B50446A0F10803DBB2012B07
:1059400004D8104B1B680021084608E00E4B40F2BB
:10595000DC520E490E4804F0C1FFF2E7DB685BB190
:105960001A7DA242FAD11D6A0A4A1268521B8A4263
:10597000F4D311461846F1E710B10021FFF70CFFF0
:1059800038BD00BF5C3700204C0E0408E811040845
:10599000000704086037002038B505460120FEF7EF
:1059A000BFFC044668B354B398220021204604F09B
:1059B0008DFF65754FF48663A4F860304FF406627E
:1059C00062852285FF22A2724FF406726286062249
:1059D000A4F84020E2874FF6FF7222860122A4F845
:1059E0004820194A12682262184A12786277A4F88D
:1059F0004A30174BC4F88030164BC4F8903020461C
:105A000038BDFFF74BFF0120FEF78AFC0446002853
:105A1000C9D10920FFF78EFF0120FEF781FC044663
:105A20000028C0D10820FFF785FF0120FEF778FC91
:105A300004460028B7D12846FFF74AFF0120FEF7A9
:105A40006FFC0446AFE700BF60370020D1000020A4
:105A50006556000800DD6D00034B5868034A126864
:105A600010445860704700BF0800002060370020D5
:105A700010B50446084603F0BFF830B1438C23B19B
:105A8000283B9BB29C4228BF1C46204610BD00000C
:105A900008B338B50446026802B938BD0D460E4B4E
:105AA0001968FFF737FF0D4B19682046FFF732FFE3
:105AB000002DF2D02B68002BEFD0094B1B6800E0C3
:105AC0001346002BE9D0DA68186821688842F7D1BC
:105AD00029681960F4E770475C37002068370020B8
