:020000040800F2
:1000000000000520F5900008D98E0008DB8E00085E
:10001000DD8E0008DF8E0008E18E00080000000081
:10002000000000000000000000000000E38E000857
:10003000E58E000800000000E78E0008E98E000849
:100040004591000845910008459100084591000838
:100050004591000845910008459100084591000828
:100060004591000845910008459100084591000818
:100070004591000845910008459100084591000808
:1000800045910008459100084591000845910008F8
:1000900045910008459100084591000845910008E8
:1000A00045910008459100084591000845910008D8
:1000B00045910008F18E0008018F00084591000865
:1000C00045910008459100084591000845910008B8
:1000D00045910008459100084591000845910008A8
:1000E0004591000845910008459100084591000898
:1000F0004591000845910008459100084591000888
:100100004591000845910008459100084591000877
:100110004591000845910008459100084591000867
:100120004591000845910008459100084591000857
:1001300045910008118F000845910008459100087D
:100140004591000845910008459100084591000837
:100150004591000845910008459100084591000827
:100160004591000845910008459100084591000817
:1001700045910008459100084591000800000000E5
:1001800045910008459100084591000845910008F7
:1001900045910008459100084591000845910008E7
:1001A00045910008459100084591000845910008D7
:1001B00045910008459100084591000845910008C7
:0801C00045910008459100087B
:1001D00010B5054C237833B9044B13B10448AFF381
:1001E00000800123237010BD7C000020000000006F
:1001F0009C9F000808B5034B1BB103490348AFF3AC
:10020000008008BD00000000800000209C9F0008C6
:1002100053B94AB9002908BF00281CBF4FF0FF316D
:100220004FF0FF3000F072B9ADF1080C6DE904CE6B
:1002300000F006F8DDF804E0DDE9022304B07047C1
:100240002DE9F047089E04468846002B4BD18A4290
:10025000154667D9B2FA82F24AB1C2F1200701FA13
:1002600002F320FA07F7954047EA030894404FEA63
:10027000154E230CB8FBFEF71FFA85FC0EFB178802
:1002800043EA084307FB0CF1994209D9EB1807F13F
:10029000FF3080F01B81994240F21881023F2B44CD
:1002A0005B1AA4B2B3FBFEF00EFB103344EA034426
:1002B00000FB0CFCA44509D92C1900F1FF3380F098
:1002C0000781A44540F2048102382C4440EA0740EB
:1002D000A4EB0C0400271EB1D4400023C6E9004360
:1002E0003946BDE8F0878B4209D9002E00F0EB803B
:1002F0000027C6E9000138463946BDE8F087B3FA61
:1003000083F7002F47D18B4202D3824200F2FA805A
:10031000841A61EB030301209846002EE0D0C6E961
:100320000048DDE702B9FFDEB2FA82F2002A40F0AF
:100330008F80491B4FEA154E1FFA85F80127B1FB44
:10034000FEFC230C0EFB1C1143EA014308FB0CF1DD
:10035000994207D9EB180CF1FF3002D2994200F212
:10036000CD808446591AA3B2B1FBFEF00EFB1014E7
:1003700043EA044408FB00F8A04507D92C1900F112
:10038000FF3302D2A04500F2B6801846A4EB080461
:1003900040EA0C409FE7C7F1200CBB4022FA0CFE5C
:1003A0004EEA030E01FA07F420FA0CF521FA0CF3D9
:1003B0004FEA1E482543B3FBF8F92C0C08FB193310
:1003C0001FFA8EFA44EA034309FB0AF49C4202FA3C
:1003D00007F200FA07F10BD91EEB030309F1FF3016
:1003E00080F087809C4240F28480A9F10209734426
:1003F0001B1BADB2B3FBF8F008FB103345EA034416
:1004000000FB0AFAA24508D91EEB040400F1FF33F1
:100410006BD2A24569D90238744440EA0940A0FB76
:100420000289A4EB0A044C45C2464B4654D351D032
:10043000002E69D0B1EB0A0564EB030404FA0CFC4E
:10044000FD40FC404CEA0505C6E90054002747E79B
:10045000C2F1200320FA03F7954001FA02F021FAD5
:1004600003F34FEA154E3843010CB3FBFEF71FFAB6
:1004700085F80EFB173341EA034107FB08F38B4273
:1004800004FA02F407D9691807F1FF3C2FD28B4216
:100490002DD9023F2944CB1A81B2B3FBFEF00EFBEB
:1004A000103341EA034100FB08F38B4207D9691876
:1004B00000F1FF3C17D28B4215D902382944C91AE2
:1004C00040EA07473BE73746304609E70746E7E695
:1004D0001846FBE64145ABD2B8EB020A69EB0E02C7
:1004E00001381346A4E76046E9E7184695E76746F2
:1004F000D1E781467CE702382C4447E7ACF1020C97
:100500002B442FE7384608E73746E9E6704700BF37
:1005100001F0FF01102A2BDB10F0070F08D010F8B4
:10052000013B013A8B422DD010F0070F42B3F6D1B8
:10053000F0B441EA012141EA014122F007047FF0D1
:1005400000070023F0E80256083C85EA010586EA28
:10055000010685FA47F5A3FA87F586FA47F6A5FA64
:1005600087F68EB9EED1F0BC01F0FF0102F0070270
:1005700032B110F8013B013A83EA010313B1F8D11B
:100580000020704701387047002D06BF35460338FC
:10059000073815F0010F07D1013015F4807F02BF35
:1005A000013015F4C03F0130F0BC0138704700BF86
:1005B00010B504460E4B18784FF47A73B3FBF0F382
:1005C0000C4A1068B0FBF3F000F09AF868B90F2CF1
:1005D00001D901200AE0002221464FF0FF3000F04F
:1005E0004FF8034B5C60002000E0012010BD00BF0D
:1005F000000000201400002008B5032000F02EF8B1
:100600000020FFF7D5FF08F0B7FB002008BD000071
:10061000034A1168034B1B780B441360704700BFFB
:100620002002002000000020014B1868704700BF26
:100630002002002038B50446FFF7F6FF0546B4F166
:10064000FF3F02D0044B1B781C44FFF7EDFF401B1B
:10065000A042FAD338BD00BF000000200649CB6895
:1006600023F4E0631B041B0C000200F4E06003436E
:10067000024A1A43CA60704700ED00E00000FA0524
:1006800030B4154BDB68C3F30223C3F10704042C19
:1006900028BF04241D1D062D14D9033B4FF0FF3540
:1006A00005FA04F421EA0401994005FA03F322EA69
:1006B00003031943002807DB0901C9B2074B19548A
:1006C00030BC70470023E9E700F00F000901C9B210
:1006D000034B1954F4E700BF00ED00E000E400E034
:1006E00014ED00E0002807DB00F01F0240090123A1
:1006F0009340024A42F82030704700BF00E100E01A
:100700000138B0F1807F0AD2064B5860064AF021CA
:1007100082F823100020986007221A607047012099
:10072000704700BF10E000E000ED00E05079137961
:1007300043EA002307480B50D07893781B0443EA20
:100740000063507843EA002312781343024A8B5027
:10075000704700BF4080024044800240016841F27F
:1007600018028B5843F400538B507047016841F2D4
:1007700018028B5843F002038B50704770B59EB03F
:10078000044629B14FF40063C3604FF48043836093
:10079000E369002B68D14FF48063079321680B68ED
:1007A000374A1A40A368E06803430798034343F4B9
:1007B000007313430B6023681D680120FFF73AFFA5
:1007C00023681D60236840225A6023685D68012009
:1007D000FFF730FF23685D60236800259D60236874
:1007E000DD602268936923F0BE031B041B0C43F0F9
:1007F0008003936123689E690120FFF71BFF236834
:100800009E612368DD612368DD690120FFF712FF27
:100810002368DD61216841F218054B59194A1A40D5
:10082000194B13434B5123685E590120FFF702FF18
:1008300023685E51236803F58053144A1A602368C5
:1008400003F580531D680120FFF7F4FE236803F5CC
:1008500080531D60A369012B09D0626900212046E5
:10086000FFF764FF1EB070BD0023079396E7216871
:1008700041F21C028858064B03438B50EDE700BF42
:100880000F8120FF233FDEF8040020028020C102F8
:100890004000010010B582B00446002301930268B5
:1008A000136843F00803136003681B680193012079
:1008B000FFF7C0FE2368019A1A6002B010BD10B5A0
:1008C00082B00446002301930268136843F00403D6
:1008D000136003681B6801930120FFF7ABFE2368D8
:1008E000019A1A6002B010BD30B583B005460023EE
:1008F0000193026841F21804135943F48013135111
:1009000003681B5901930120FFF794FE2B68019A9D
:100910001A5103B030BDF0B490F84540012C31D0ED
:10092000012480F84540022480F84440C16200243C
:1009300001E0F96001349C4217D265014F194FF470
:1009400080164E5140F2F45606FB0426BE60C6697E
:100950001EB94E5946F440064E515D1EA542E8D9D7
:10096000651C01EB4515FD60E4E7026841F21003E8
:10097000D150012380F84430002380F845301846D8
:10098000F0BC70470220FBE7F0B490F84540012C22
:100990002ED0012480F84540022480F84440816232
:1009A000002401E0E96001349C4214D266018D19F3
:1009B0004FF000478F5144F2F4566E6040F2F45607
:1009C00006FB0426AE605E1EA642EBD9661C01EB58
:1009D0004616EE60E7E7026841F20C03D1500123AE
:1009E00080F84430002380F845301846F0BC70474A
:1009F0000220FBE790F84530012B00F085800123B1
:100A000080F84530022380F84430B1B1C36A1A68D7
:100A1000002A1ADB30B440F2F45291421DD93B4A0D
:100A2000A2FB0142920A40F2F45404FB121404B1F6
:100A30000132012A11D0002347E0012380F844301D
:100A4000002280F8452018467047122380F8443071
:100A5000002380F84530012070471A6842F0405268
:100A60001A60C36AC1F30C015960C26A136843F08B
:100A700000431360C36ADB68C362036841F2140277
:100A80009A5812F0040F08D041F214020421995030
:100A9000026841F204030021D150012380F8443060
:100AA000002380F84530184630BC7047C56A2C6872
:100AB00044F080542C6011E0C56A2C6844F0004476
:100AC0002C60C46AE468C46201339A42D5D9C56A0D
:100AD0002C6824F040542C60002BE7D0C46A40F20C
:100AE000F4556560541E9C42E6D1C56A2C6844F0FA
:100AF00000542C60064C04FB021404F2F454C56A42
:100B0000C4F30C046C60D7E7022070470BB002AC52
:100B10000CFAFFFF90F84530012B40D0012380F8FC
:100B20004530022380F84430836A1A68002A28DBA3
:100B30001A6812F4807F19D0826B01328263012A15
:100B400012D043631A68C2F30D42043AC263026BC7
:100B500092680264DB688362012380F844300023DA
:100B600080F84530184670470363EAE71A6812F4C4
:100B7000007F0ED003630022426301228263DB68A0
:100B80008362012380F84430002280F84520184613
:100B90007047826B01328263DB688362F1E7022077
:100BA000704770477047704710B50446036841F2BC
:100BB00014029A5812F0400F11D141F214029B58BE
:100BC00013F0010F19D1226841F214034FF4803160
:100BD000D1502268D35813F4004F1BD110BDFFF73A
:100BE000E1FF226841F214034021D150012384F82F
:100BF0004430002384F84530E5E7FFF7D2FF216851
:100C0000012341F214028B5084F84430002384F80D
:100C10004530D8E72046FFF7C6FF226841F21403AB
:100C20004FF40041D150012384F84430002384F86C
:100C30004530D3E7F8B590F84430DBB2822B33D09F
:100C400016460546822380F844300268136903F093
:100C50001C03048AE402A4B223438C0104F4F86464
:100C60001C4344F001041461FFF7DEFC074614F056
:100C7000010F10D0FFF7D8FCC01BB0F5803F02D2A7
:100C80002B681C69F3E7012385F84430002385F8BD
:100C90004530032007E02B685B699BB2336001237A
:100CA00085F844300020F8BD0220FCE790F844307D
:100CB000DBB2422B32D070B50546422380F8443077
:100CC0000068036903F01C032C8AE402A4B22343E6
:100CD0008C0104F4F8641C4344F0030492B24261B2
:100CE0002B681C61FFF7A0FC064614F0010F10D022
:100CF000FFF79AFC801BB0F5803F02D22B681C697D
:100D0000F3E7012385F84430002385F845300320BC
:100D100003E0012385F84430002070BD02207047B5
:100D200070B582B000230193002800F00C810446C6
:100D300090F84430002B32D0844B5A6C42F48042FD
:100D40005A645B6C03F480430093009B804B5A68A9
:100D500022F400025A605A68216A0A435A602368E2
:100D600003F580531A6842F001021A60FFF75CFC39
:100D70000546236803F58052126812F0010F13D064
:100D8000FFF752FC401BB0F5FA7FF2D9032584F837
:100D90004450002384F84530284602B070BD80F8E6
:100DA000453007F07DFCC7E71D6925F01C0500F004
:100DB00051FD684B0344684A934255D845F00805F5
:100DC00023681D614FF4004200212046FFF76EFFAB
:100DD0000546002860D1FF20FFF72CFC6368002B3C
:100DE00000F09180FFF720FC064601AA0121204671
:100DF000FFF720FFFFF718FC801B41F28833984271
:100E000052D8019B13F0040FEFD04FF48052002111
:100E10002046FFF74BFF002852D1FFF705FC06469E
:100E200001AA01212046FFF705FFFFF7FDFB801B0C
:100E300041F2883398424BD8019B13F0200FEFD03A
:100E400001AA1F212046FFF7F5FE00284CD1019B87
:100E500013F0100F50D04FF40062E26013F0040F53
:100E60004DD00023A3605EE03C4B03443C4A9342D8
:100E700002D845F00C05A3E73A4B03443A4A9342A3
:100E80009ED93A4B03443A4A934202D845F00405AE
:100E900096E745F0100593E701212046FFF76EFC29
:100EA000012584F8445077E701212046FFF766FCCE
:100EB000012384F84430002384F8453003256BE790
:100EC00001212046FFF75AFC012584F8445063E7CE
:100ED00001212046FFF752FC012384F8443000230F
:100EE00084F84530032557E701212046FFF746FCEB
:100EF000012584F844504FE70022E260AEE74FF44A
:100F00008043A3600FE0E268C2F3CF02A368C3F39B
:100F10004F031A4300212046FFF7C8FE58B940F698
:100F2000FF70FFF787FB00212046FFF727FC012316
:100F300084F8443030E701212046FFF71FFC0125EB
:100F400084F8445028E7012526E700BF0038024016
:100F50000038014000D3CEFEBFE1E40040F1E9FDDE
:100F60003F787D0100796CFCFF596202001F0AFA8C
:100F70007FF0FA0238B590F84530012B1AD00446BC
:100F8000012580F84550022380F84430FFF782FCA9
:100F90002046FFF794FC2046FFF7A6FC2046FFF70B
:100FA000DDFB2046FFF7E2FB84F84450002084F884
:100FB000450038BD0220FCE700230F2B00F2E28041
:100FC000F0B482B039E0092200E00022B2403A4396
:100FD00002346D4E46F824206C4A1468EA4302EA53
:100FE00004064F6817F4803F01D045EA0406674CB9
:100FF0002660646802EA04064F6817F4003F01D0D7
:1010000045EA0406614C6660A46802EA04064F687B
:1010100017F4801F01D045EA04065C4CA660E46822
:1010200022404E6816F4001F01D045EA0402574CD6
:10103000E26001330F2B00F2A28001229A400C687B
:1010400004EA0205AA42F4D14C68122C18BF022C03
:1010500010D1DE08083650F826C003F00704A700B8
:101060000F24BC402CEA040C0C69BC4044EA0C047C
:1010700040F8264004685F000326BE40F64306EAB7
:10108000040C4C6804F00304BC4044EA0C04046003
:101090004C6804F1FF3C112C18BFBCF1010F01D9C1
:1010A000122C11D1846806EA040CCC68BC4044EAD6
:1010B0000C048460446824EA020C4C68C4F30012F7
:1010C0009A4042EA0C024260C26816408A68BA40FE
:1010D0003243C2604A6812F0805FAAD02C4A546C36
:1010E00044F480445464526C02F480420192019AA8
:1010F0009C08A61C244A52F8267003F003029600AE
:101100000F22B24027EA0207224A90423FF45DAF25
:1011100002F58062904222D002F58062904220D097
:1011200002F5806290421ED002F5806290421CD08F
:1011300002F5806290421AD002F58062904218D087
:1011400002F58062904216D002F58062904214D07F
:1011500002F5806290423FF436AF0A2236E7012260
:1011600034E7022232E7032230E704222EE7052289
:101170002CE706222AE7072228E7082226E702B002
:10118000F0BC7047704700BF00380140003C014090
:10119000003802400000024012B909048161704722
:1011A00081617047436931EA030301D0816170476F
:1011B0000904816170470000024A136843F4807398
:1011C000136070470070004010B582B01B4B1A6C62
:1011D00042F080521A641B6C03F080530193019B10
:1011E000174A136843F480331360FFF71DFA04466F
:1011F000134B5B6813F4803F08D1FFF715FA001B0F
:10120000B0F57A7FF4D9032002B010BD0C4A136800
:1012100043F400331360FFF707FA0446084B5B689A
:1012200013F4003F07D1FFF7FFF9001BB0F57A7FF9
:10123000F4D90320E8E70020E6E700BF00380240C9
:1012400000700040002800F0DB8170B582B00446D9
:10125000036813F0010F29D0A24B9B6803F00C0325
:10126000042B1AD09F4B9B6803F00C03082B0FD064
:101270006368B3F5803F40D0002B54D1994B1A6876
:1012800022F480321A601A6822F480221A6039E04F
:10129000944B5B6813F4800FEAD0924B1B6813F4F5
:1012A000003F03D06368002B00F0AC81236813F08B
:1012B000020F75D08B4B9B6813F00C0F5ED0894BDF
:1012C0009B6803F00C03082B53D0E368002B00F05D
:1012D0008A80844A136843F001031360FFF7A4F97E
:1012E0000546804B1B6813F0020F73D1FFF79CF982
:1012F000401B0228F5D9032087E17A4A136843F49A
:101300008033136063682BB3FFF78EF90546754B86
:101310001B6813F4003FC9D1FFF786F9401B64280E
:10132000F5D9032071E1B3F5A02F09D06D4B1A68F0
:1013300022F480321A601A6822F480221A60E1E7EF
:10134000684B1A6842F480221A601A6842F48032AC
:101350001A60D7E7FFF768F90546624B1B6813F47C
:10136000003FA3D0FFF760F9401B6428F5D90320A4
:101370004BE15C4B5B6813F4800FA6D1594B1B68A3
:1013800013F0020F04D0E368012B01D001203CE1EF
:10139000544A136823F0F803216943EAC103136038
:1013A000236813F0080F46D0636983B34D4A536F27
:1013B00043F001035367FFF737F90546494B5B6F6D
:1013C00013F0020F37D1FFF72FF9401B0228F5D990
:1013D00003201AE1434A136823F0F803216943EA22
:1013E000C1031360DCE73F4A136823F00103136075
:1013F000FFF71AF905463B4B1B6813F0020FCFD0DD
:10140000FFF712F9401B0228F5D90320FDE0354A09
:10141000536F23F001035367FFF706F90546314B7D
:101420005B6F13F0020F06D0FFF7FEF8401B022897
:10143000F5D90320E9E0236813F0040F7ED0294B8F
:101440001B6C13F0805F1ED1264B1A6C42F0805249
:101450001A641B6C03F080530193019B0125224BFE
:101460001B6813F4807F10D0A368012B21D0002BC0
:101470003CD11C4B1A6F22F001021A671A6F22F03E
:1014800004021A671AE00025E9E7174A136843F4D3
:1014900080731360FFF7C8F80646134B1B6813F4FC
:1014A000807FE1D1FFF7C0F8801B6428F5D90320C5
:1014B000ABE00C4A136F43F001031367A3685BB3FF
:1014C000FFF7B2F80646074B1B6F13F0020F34D13B
:1014D000FFF7AAF8801B41F288339842F3D9032022
:1014E00093E000BF0038024000700040052B09D097
:1014F000484B1A6F22F001021A671A6F22F0040299
:101500001A67DBE7434B1A6F42F004021A671A6F3F
:1015100042F001021A67D1E7FFF786F806463D4B15
:101520001B6F13F0020F08D0FFF77EF8801B41F20B
:1015300088339842F3D9032067E0F5B9A369002BFB
:1015400062D0344A926802F00C02082A5FD0022B63
:1015500019D0304A136823F080731360FFF764F8E2
:1015600004462C4B1B6813F0007F47D0FFF75CF854
:10157000001B0228F5D9032047E0264A136C23F00C
:1015800080531364DAE7234A136823F080731360EF
:10159000FFF74AF805461F4B1B6813F0007F06D083
:1015A000FFF742F8401B0228F5D903202DE0E3693C
:1015B000226A1343626A43EA8213A26A5208013A1A
:1015C00043EA0243E26A43EA026343F00053114AEA
:1015D0005360136843F080731360FFF725F80446E7
:1015E0000C4B1B6813F0007F06D1FFF71DF8001BA2
:1015F0000228F5D9032008E0002006E0002004E0DE
:1016000001207047012000E0002002B070BD0120E1
:10161000FBE700BF00380240324B9B6803F00C032D
:10162000042B5CD0082B01D02F4870472DE9F04BDC
:101630002C4B5A6802F03F025B6813F4800F2BD0EA
:10164000284B5B68C3F388131E4600275C01002506
:10165000E41A65EB0705A90141EA9461A001001BAA
:1016600061EB0501CB0043EA5073C400A01943EBC2
:1016700007014B0243EAD053440220461946002397
:10168000FEF7C6FD174B5B68C3F3014301335B00F4
:10169000B0FBF3F0BDE8F08B124B5B68C3F388132B
:1016A0001E4600275C010025E41A65EB0705A90129
:1016B00041EA9461A001001B61EB0501CB0043EA04
:1016C0005073C400A01943EB07018B0243EA905307
:1016D0008402204619460023FEF79AFDD2E703480C
:1016E000704700BF003802400024F40000127A0066
:1016F000002800F0A28070B50446524B1B6803F02E
:101700000F038B420CD24F4A136823F00F030B4395
:101710001360136803F00F038B4201D0012070BDEA
:10172000236813F0020F17D013F0040F04D0464AB9
:10173000936843F4E0539360236813F0080F04D0D8
:10174000414A936843F4604393603F4A936823F0AF
:10175000F003A068034393600D46236813F0010F64
:1017600031D06368012B20D0022B25D0364A126875
:1017700012F0020F63D034498A6822F00302134347
:101780008B60FEF751FF06462F4B9B6803F00C035E
:101790006268B3EB820F16D0FEF746FF801B41F262
:1017A00088339842F0D90320B9E7274A126812F427
:1017B000003FE0D10120B2E7234A126812F0007F17
:1017C000D9D10120ABE71F4B1B6803F00F03AB42DD
:1017D0000CD91C4A136823F00F032B4313601368C2
:1017E00003F00F03AB4201D0012098E7236813F008
:1017F000040F06D0144A936823F4E053E1680B43C6
:101800009360236813F0080F07D00F4A936823F4FE
:101810006043216943EAC1039360FFF7FDFE0A4B71
:101820009B68C3F30313094AD35CD840084B186084
:101830000020FEF7BDFE002071E701207047012067
:101840006DE700BF003C024000380240C8A000081D
:1018500014000020014B1868704700BF14000020DE
:1018600008B5FFF7F7FF044B9B68C3F38223034AD5
:10187000D35CD84008BD00BF00380240D8A00008A3
:1018800008B5FFF7E7FF044B9B68C3F34233034AF5
:10189000D35CD84008BD00BF00380240D8A0000883
:1018A000F0B583B00446036813F0010F0CD0AF4BC2
:1018B0009A6822F400029A609A68416B0A439A601F
:1018C000436BC3B1002600E00026236813F4002F09
:1018D00015D0A64AD2F88C3023F44013E16B0B43A9
:1018E000C2F88C30E36BB3F5801F06D0002B00F0FC
:1018F0001B81002504E00126E7E70126F6E7002525
:10190000236813F4801F0FD0984AD2F88C3023F448
:101910004003216C0B43C2F88C30236CB3F5800F6D
:1019200000F0048103B90125236813F0807F00D003
:10193000012613F0200F40F0FB80236813F0100FF6
:101940000CD08A4BD3F88C2022F08072C3F88C2004
:10195000D3F88C20A16B0A43C3F88C20236813F4BE
:10196000804F08D0814AD2F8903023F44033616E22
:101970000B43C2F89030236813F4004F08D07B4A21
:10198000D2F8903023F44023A16E0B43C2F890307C
:10199000236813F4803F08D0744AD2F8903023F4BF
:1019A0004013E16E0B43C2F89030236813F4003FFC
:1019B00008D06E4AD2F8903023F44003216F0B43D5
:1019C000C2F89030236813F0400F08D0674AD2F86D
:1019D000903023F00303616C0B43C2F8903023680E
:1019E00013F0800F08D0614AD2F8903023F00C0336
:1019F000A16C0B43C2F89030236813F4807F08D0A9
:101A00005A4AD2F8903023F03003E16C0B43C2F80D
:101A10009030236813F4007F08D0544AD2F89030F5
:101A200023F0C003216D0B43C2F89030236813F4F8
:101A3000806F08D04D4AD2F8903023F44073616D26
:101A40000B43C2F89030236813F4006F08D0474A64
:101A5000D2F8903023F44063A16D0B43C2F890306C
:101A6000236813F4805F08D0404AD2F8903023F402
:101A70004053E16D0B43C2F89030236813F4005FCC
:101A800008D03A4AD2F8903023F44043216E0B43F9
:101A9000C2F89030236813F4800F08D0334AD2F88C
:101AA000903023F08063A16F0B43C2F8903023681D
:101AB00013F4001F0DD02D4AD2F8903023F00063AC
:101AC000E16F0B43C2F89030E36FB3F1006F00F0A9
:101AD0009980236813F0080F00D0012513F4802F9C
:101AE00008D0224AD2F8903023F04073616F0B4344
:101AF000C2F89030236813F4000F09D01B4AD2F8C3
:101B0000903023F08053D4F880100B43C2F890300B
:101B1000002E79D12368B3F1007F75D0002D40F0FD
:101B20000681002003B0F0BD0125E9E60126F9E6B3
:101B30000E4B1A6C42F080521A641B6C03F08053F7
:101B40000193019B0A4A136843F480731360FEF704
:101B50006BFD0746064B1B6813F4807F0AD1FEF726
:101B600063FDC01B6428F5D90320DBE70038024081
:101B700000700040B34B1B6F13F4407315D0226B01
:101B800002F440729A4210D0AE4B1A6F22F44072A7
:101B9000196F41F480311967196F21F48031196789
:101BA0001A671B6F13F0010F12D1236B03F44072FD
:101BB000B2F5407F1DD0A34A936823F4F8139360D5
:101BC000A0490B6F226BC2F30B0213430B67B4E601
:101BD000FEF72AFD07469B4B1B6F13F0020FE4D163
:101BE000FEF722FDC01B41F288339842F3D903204F
:101BF00098E79448826822F4F812934919400A43FE
:101C00008260DDE7012564E78E4A136823F0806374
:101C10001360FEF709FD06468A4B1B6813F0006F40
:101C200006D0FEF701FD801B6428F5D9032079E773
:101C3000236813F0010F13D0636B8BB9814AD2F87C
:101C40008430D2F88410606803F4403343EA801390
:101C500001F070610B43A16843EA0173C2F884305C
:101C6000236813F4002F03D0E26BB2F5801F06D077
:101C700013F4801F1ED0236CB3F5800F1AD1714A64
:101C8000D2F88430D2F88410606803F4403343EA19
:101C90008013E06843EA006301F0E0410B43C2F8BF
:101CA0008430D2F88C3023F01F03616A01390B4372
:101CB000C2F88C30236813F0807F11D0614AD2F8CB
:101CC0008400D2F88410666823691B0443EA8613F3
:101CD00000F07060034301F0E0410B43C2F8843030
:101CE000236813F0007F0DD0626823691B0443EA68
:101CF0008213E26843EA0263A26843EA0273514A2C
:101D0000C2F884304F4A136843F080631360FEF7D3
:101D10008BFC06464B4B1B6813F0006F7FF4FEAE46
:101D2000FEF782FC801B6428F4D90320FAE6454ABA
:101D3000136823F080531360FEF776FC0546414B91
:101D40001B6813F0005F06D0FEF76EFC401B642892
:101D5000F5D90320E6E6236813F4002F01D0E26BE7
:101D600022B113F4801F1DD0236CDBB9354AD2F8A1
:101D70008830D2F88810606903F4403343EA801356
:101D8000A06943EA006301F0E0410B43C2F88830E8
:101D9000D2F88C3023F4F853A16A013943EA0123C5
:101DA000C2F88C30236813F4001F03D0E36FB3F143
:101DB000006F31D0236813F0080F19D0214AD2F8F0
:101DC0008810D2F88830606903F4403343EA801306
:101DD00001F070610B43E16943EA0173C2F8883096
:101DE000D2F88C3023F44033E16A0B43C2F88C30D4
:101DF000144A136843F080531360FEF715FC044641
:101E0000104B1B6813F0005F19D1FEF70DFC001B8F
:101E10006428F5D9032085E60A4AD2F88800D2F86A
:101E200088106569236A1B0443EA851300F070601B
:101E3000034301F0E0410B43C2F88830BAE70020C9
:101E400070E600BF00380240FFFCFF0F70B4036A69
:101E500023F001030362036A42688569124C2C4037
:101E60000D68254323F002048B6823430F4C104E6A
:101E7000B04218BFA0420CBF0124002405D123F0BA
:101E80000803CE68334323F004032CB122F44072DC
:101E90004C6914438A692243426085614A684263FF
:101EA000036270BC704700BF8CFFFEFF0000014062
:101EB0000004014070B4036A23F480730362036A70
:101EC0004268C569144C2C400E68264323F4007305
:101ED0008C6843EA0423114C114DA84218BFA0425C
:101EE0000CBF0124002406D123F40063CD6843EA2B
:101EF000052323F480633CB122F440524C6942EA4A
:101F000004128C6942EA04124260C6614A68C263E4
:101F1000036270BC704700BF8CFFFEFF00000140F1
:101F20000004014070B4036A23F480530362036A1F
:101F30004468C5690D4A2A400D6842EA052223F427
:101F400000538D6843EA0533094E0A4DA84218BF75
:101F5000B04204D124F480444D6944EA85144460BD
:101F6000C2614A680264036270BC7047FF8CFFFE66
:101F7000000001400004014070B4036A23F4803380
:101F80000362036A4268446D0D4D25400C682C4382
:101F900023F400338D6843EA05430A4E0A4DA842F4
:101FA00018BFB04204D122F480324D6942EA0522C2
:101FB000426044654A688265036270BC704700BF36
:101FC0008FFFFEFF000001400004014070B4036A6F
:101FD00023F480130362036A4468456D0D4A2A4066
:101FE0000D6842EA052223F400138D6843EA055385
:101FF000094E0A4DA84218BFB04204D124F48024EF
:102000004D6944EA8524446042654A68C2650362BA
:1020100070BC7047FF8FFFFE0000014000040140CC
:1020200010B4036A046A24F001040462846924F091
:10203000F00444EA021223F00A030B4382610362B4
:102040005DF8044B704710B4036A23F01003036279
:102050008469036A24F4704444EA023223F0A00342
:1020600043EA0113826103625DF8044B70478368A1
:1020700023F07003194341F00701816070470000AD
:102080000268D36843F00103D36002689168064B8D
:102090000B40062B18BFB3F5803F03D0136843F005
:1020A000010313600020704707000100704770476C
:1020B00070477047704710B5044603681A6912F0FC
:1020C000020F11D0DA6812F0020F0DD06FF0020289
:1020D0001A610123037703689B6913F0030F79D01A
:1020E000FFF7E6FF0023237723681A6912F0040F35
:1020F00012D0DA6812F0040F0ED06FF004021A61E9
:102100000223237723689B6913F4407F68D020461D
:10211000FFF7CEFF0023237723681A6912F0080F18
:1021200012D0DA6812F0080F0ED06FF008021A61B0
:10213000042323772368DB6913F0030F57D020466D
:10214000FFF7B6FF0023237723681A6912F0100FF8
:1021500012D0DA6812F0100F0ED06FF010021A6170
:10216000082323772368DB6913F4407F46D0204699
:10217000FFF79EFF0023237723681A6912F0010FEF
:1021800003D0DA6812F0010F3FD123681A6912F008
:10219000800F03D0DA6812F0800F3DD123681A69EE
:1021A00012F4807F03D0DA6812F0800F3BD12368ED
:1021B0001A6912F0400F03D0DA6812F0400F39D1DB
:1021C00023681A6912F0200F03D0DA6812F0200F8A
:1021D00037D110BDFFF76BFF2046FFF76AFF81E79D
:1021E0002046FFF764FF2046FFF763FF92E7204693
:1021F000FFF75DFF2046FFF75CFFA3E72046FFF7F0
:1022000056FF2046FFF755FFB4E76FF001021A6151
:10221000204606F091FDB8E76FF080021A61204673
:1022200000F04DFABAE76FF480721A61204600F0B0
:1022300047FABCE76FF040021A612046FFF73AFF09
:10224000BEE76FF020021A61204600F037FAC0E7BF
:1022500070B403683A4CA04214BF00240124B0F1CA
:10226000804F14BF224644F00102AAB9354DA8425E
:1022700014BF00250125344EB0420DD065B905F1DB
:10228000804505F58235A84214BF0025012506F5D5
:102290000066B04200D01DB123F070034D682B439F
:1022A000002A33D1274A904214BF00220122264D32
:1022B000A8422BD052BB02F1804202F582329042FA
:1022C00014BF0022012205F50065A8421ED0EAB91C
:1022D0001E4A904214BF0022012205F59A35A842F9
:1022E00014D09AB91A4A904214BF0022012205F56F
:1022F0000065A8420AD04AB9164A904214BF00228B
:102300000122A5F59635A84200D01AB123F44073F6
:10231000CA68134323F080034A69134303608A6841
:10232000C2620A6882620C4B984214BF234644F092
:1023300001030BB10B6903630123436170BC704758
:10234000000001400008004000040040004401403B
:10235000001800400020004000040140A8B110B562
:10236000044690F83D305BB1022384F83D30211DD6
:102370002068FFF76DFF012384F83D30002010BD79
:1023800080F83C3006F010FDEEE701207047A8B160
:1023900010B5044690F83D305BB1022384F83D301F
:1023A000211D2068FFF754FF012384F83D300020F1
:1023B00010BD80F83C30FFF779FEEEE70120704752
:1023C00070B4036A23F010030362036A42688569EC
:1023D000144C2C400D6844EA052523F020038C683A
:1023E00043EA0413104C114EB04218BFA0420CBF78
:1023F0000124002406D123F08003CE6843EA0613AB
:1024000023F040033CB122F440624C6942EA84026A
:102410008C6942EA8402426085614A688263036291
:1024200070BC7047FF8CFFFE0000014000040140BB
:1024300038B590F83C30012B00F092800D460446F0
:10244000012380F83C30022380F83D30142A1ED846
:10245000DFE802F00B1D1D1D241D1D1D381D1D1D57
:102460004B1D1D1D5F1D1D1D72000068FFF7EEFC5A
:102470002268936943F0080393612268936923F00B
:10248000040393612268936929690B4393610123D3
:1024900084F83D30002084F83C0038BD0068FFF728
:1024A0008FFF2268936943F4006393612268936904
:1024B00023F48063936122689369296943EA0123C5
:1024C0009361E4E70068FFF7F5FC2268D36943F005
:1024D0000803D3612268D36923F00403D36122681F
:1024E000D36929690B43D361D1E70068FFF71AFD6F
:1024F0002268D36943F40063D3612268D36923F46B
:102500008063D3612268D369296943EA0123D361D7
:10251000BDE70068FFF730FD2268536D43F0080304
:1025200053652268536D23F0040353652268536D8D
:1025300029690B435365AAE70068FFF747FD226846
:10254000536D43F4006353652268536D23F4806335
:1025500053652268536D296943EA0123536596E761
:1025600002209AE710B4846824F47F4442EA0323EB
:102570000B43234383605DF8044B704790F83C3075
:10258000012B64D010B50446012380F83C300223AF
:1025900080F83D30026890682E4B034093600B68D2
:1025A000402B4AD013D9602B3DD01ED9702B28D098
:1025B000B3F5005F30D1CB684A6889682068FFF7BF
:1025C000D1FF2268936843F48043936024E0102B8A
:1025D00006D004D9202B03D0302B01D01CE0DBB96E
:1025E00019462068FFF743FD16E0502B14D1CA6846
:1025F00049682068FFF714FD50212068FFF737FD78
:102600000AE0CB684A6889682068FFF7ABFF226858
:10261000936843F077039360012384F83D300020F2
:1026200084F83C0010BDCA6849682068FFF70BFDBC
:1026300060212068FFF71BFDEEE7CA684968206843
:10264000FFF7EEFC40212068FFF711FDE4E70220D0
:10265000704700BF8800FEFF90F83C30012B27D068
:1026600070B4012380F83C30022380F83D300368C9
:102670005A689D680F4E104CA34218BFB34203D155
:1026800022F470024C68224322F070020C6822434C
:1026900025F08004896821435A600368996001230A
:1026A00080F83D30002380F83C30184670BC7047FD
:1026B000022070470000014000040140704770474D
:1026C0007047000010B504468368026913434269ED
:1026D0001343C269134301680868994A02401343CF
:1026E0000B602268536823F44053E1680B43536046
:1026F000A269236A1A4321688B6823F43063134369
:102700008B6023688F4A934218D08F4A934228D017
:102710008E4A93423DD08E4A934250D08D4A934286
:1027200062D08D4A934277D08C4A934200F08C80DD
:102730008B4A934200F0A0801023B6E0894BD3F877
:10274000903003F00303032B09D8DFE803F0020401
:10275000AD060123A9E00423A7E00823A5E0102388
:10276000A3E0804BD3F8903003F00C030C2B0ED871
:10277000DFE803F0070D0D0D090D0D0DA90D0D0D71
:102780000B00002391E004238FE008238DE0102349
:102790008BE0744BD3F8903003F03003102B0AD049
:1027A00006D9202B00F09180302B06D108237CE045
:1027B0001BB9002379E0042377E0102375E0694B0F
:1027C000D3F8903003F0C003402B09D005D9802BFB
:1027D0007DD0C02B06D1082367E01BB9002364E03D
:1027E000042362E0102360E05E4BD3F8903003F4E2
:1027F0004073B3F5807F0BD007D9B3F5007F68D065
:10280000B3F5407F06D108234FE01BB900234CE00D
:1028100004234AE0102348E0524BD3F8903003F4ED
:102820004063B3F5806F0BD007D9B3F5006F52D07A
:10283000B3F5406F06D1082337E01BB9012334E01C
:10284000042332E0102330E0464BD3F8903003F4F9
:102850004053B3F5805F0BD007D9B3F5005F3CD090
:10286000B3F5405F06D108231FE01BB900231CE02D
:1028700004231AE0102318E03A4BD3F8903003F405
:102880004043B3F5804F0BD007D9B3F5004F26D0A6
:10289000B3F5404F06D1082307E01BB9002304E03D
:1028A000042302E0102300E00223E269B2F5004FA6
:1028B00017D0082B00F2B380DFE803F0768B95B1D8
:1028C0009EB1B1B1A8000223EFE70223EDE7022396
:1028D000EBE70223E9E70223E7E70223E5E7022328
:1028E000E3E7082B5DD8DFE803F0051F3F5C485C99
:1028F0005C5C5300FEF7B4FF6268530803EB4003CF
:10290000B3FBF2F39BB20020A3F110014FF6EF727C
:10291000914200F287809AB222F00F02C3F3420381
:1029200013432268D36050E0FEF7AAFF62685308A1
:1029300003EB4003B3FBF2F39BB20020E4E700BFDC
:10294000F369FFEF001001400044004000480040E0
:10295000004C00400050004000140140007800404E
:10296000007C0040003802406268304B03EB5203A9
:10297000B3FBF2F39BB20020C6E7FEF74DFE6268A0
:10298000530803EB4003B3FBF2F39BB20020BBE719
:102990006268530803F58033B3FBF2F39BB2002067
:1029A000B2E701200023AFE7FEF75AFF626800EBB1
:1029B0005203B3FBF2F39BB20020A3F110014FF6D8
:1029C000EF72914230D82268D36000232366636699
:1029D00010BDFEF755FF626800EB5203B3FBF2F344
:1029E0009BB20020E9E76268114B03EB5203B3FB93
:1029F000F2F39BB20020E0E7FEF70EFE626800EB08
:102A00005203B3FBF2F39BB20020D6E7626853088F
:102A100003F50043B3FBF2F39BB20020CDE70120A6
:102A20000023CAE70120D0E70120CEE70048E801F3
:102A30000024F400436A13F0010F06D002685368C3
:102A400023F40033816A0B435360436A13F0020F8F
:102A500006D00268536823F48033C16A0B43536085
:102A6000436A13F0040F06D00268536823F48023EE
:102A7000016B0B435360436A13F0080F06D00268E2
:102A8000536823F40043416B0B435360436A13F0D4
:102A9000100F06D00268936823F48053816B0B43B8
:102AA0009360436A13F0200F06D00268936823F402
:102AB0000053C16B0B439360436A13F0400F0AD07D
:102AC0000268536823F48013016C0B435360036C5A
:102AD000B3F5801F0BD0436A13F0800F06D0026855
:102AE000536823F40023816C0B43536070470268E2
:102AF000536823F4C003416C0B435360EBE72DE9AB
:102B0000F04105460F4616469846069C2B68DB6941
:102B100037EA03030CBF01230023B3421CD1B4F1F5
:102B2000FF3FF3D0FDF780FDA0EB0800A04201D8E5
:102B3000002CEBD12A68136823F4D07313602A6841
:102B4000936823F00103936020236B67AB67002336
:102B500085F87030032000E00020BDE8F08110B55A
:102B600082B004460023C367FDF75EFD2268126849
:102B700012F0080F07D120236367A367002084F8B1
:102B8000700002B010BD6FF07E4300930346002238
:102B90004FF400112046FFF7B2FF0028EBD00320CE
:102BA000EFE768B310B50446436F03B324236367AC
:102BB0002268136823F0010313602046FFF782FDAB
:102BC000012813D0636ABBB92268536823F4904389
:102BD00053602268936823F02A0393602268136885
:102BE00043F0010313602046FFF7B9FF10BD80F8E2
:102BF000703006F03BF9D9E72046FFF71BFFE3E70B
:102C00000120704740BA80B27047030203F47F038B
:102C100043EA0063020A02F47F42134343EA10606E
:102C2000704708B500F078F800F04AFA00F09DFA15
:102C300003F0CCFE00F0B6FF03F054FE08BD000028
:102C400010B504462D4B1B68834231D82B4B5B6873
:102C5000A34235D92379002B3AD12388B3F5C86F25
:102C60003ED8264B1B6821885A1894420FD0107901
:102C700068B922484068904209D020488068904254
:102C800036D05A5A2280E01A5A5A1A445080618823
:102C90005A1894420BD0107948B918488068A0425D
:102CA00029D020885852D21A21880B445A8010BD4E
:102CB000134B40F25D121349134806F08BFAC5E737
:102CC0000F4B4FF4AF7211490F4806F083FAC1E77A
:102CD0000B4B40F25F120E490B4806F07BFABCE743
:102CE000074B4FF4B1720B49074806F073FAB8E787
:102CF000024A9460C5E701488260D2E7980000204C
:102D0000E4A0000814A100082CA1000854A10008A8
:102D100070A100088CA1000810B40B4B23F0030332
:102D20000A4A13604FF4C860188000215980197155
:102D30001918516001240C71A3F840064880936073
:102D40005DF8044B704700BF3F0200209800002050
:102D500000283DD038B5044610F0030F28D11D4B94
:102D60001B68A34203D81B4B5B68A34206D81A4BCF
:102D700040F2AF1219491A4806F02CFA154B1B689D
:102D8000A34214D8134B5B68A34210D9A4F10805E1
:102D900014F8043CA3B1002304F8043C0D4B9B68D9
:102DA000AB4201D90B4B9D602846FFF749FF38BD68
:102DB000094B4FF4D6720B49094806F00BFACEE7DF
:102DC000054B4FF4E0720849054806F003FAE2E7C4
:102DD000704700BF98000020E4A00008DCA10008B4
:102DE0002CA10008B8A10008F4A10008F8B5054618
:102DF000CC1CA4B224F00304A4B20B2C04D9B4F567
:102E0000C86F02D9002543E00C24384B1B68AB4245
:102E100003D8364B5B68AB4206D8354B4FF4FA7299
:102E20003449354806F0D6F9304B1B68AB422FD8F1
:102E30002E4A5268AA422BD9A5F10807FF1ABFB241
:102E400035F8086CF61BB6B2083EB6B2B44221D8CB
:102E5000B44249D81CD0254B1A6835F8083CD11823
:102E6000087918BBD05AE3199BB208339BB21F4CA8
:102E7000A4688C4216D0D11800240C71D0524F8017
:102E800025F8083CD15AB1F5C86F01D00A445380E7
:102E90002846F8BD164B40F206221849164806F09F
:102EA00099F9D5E7D118114CA160E4E704F11403B6
:102EB000B342EDD8E3199BB208339BB2D1180B484B
:102EC0008068884201D9094881600020087135F87E
:102ED000080CD0524F8025F8083CD15AB1F5C86F84
:102EE000D6D00A445380D3E70025D1E798000020CC
:102EF000E4A0000808A200082CA1000820A20008F5
:102F0000002800F083800246033292B222F00302CE
:102F100092B20B2A04D9B2F5C86F02D900207047CB
:102F20000C22F8B53A4B1E689B689B1B9BB244E091
:102F300001232371364B9B68A34210D025440835EA
:102F4000334B5B689D421FD814F0030524D15DBB51
:102F500004F1080059E02E4A12681B8813441A79BC
:102F60001AB12B4949689942F5D129498B604968C2
:102F70009942E3D0002AE1D0264B40F2CF222649E5
:102F8000264806F027F9D9E7224B4FF43572244939
:102F9000224806F01FF9D7E71E4B40F2D6222149FE
:102FA0001E4806F017F9D2E71A4B4FF436721E4945
:102FB0001A4806F00FF9CBE723881F461546C2F5DD
:102FC000C860834220D2F41820790028F4D1F15A45
:102FD000C91B0839A942EFD305F114008142A7D3D8
:102FE0001A4492B2083292B2B118002008712088B7
:102FF000B0524B80228001232371B35AB3F5C86FBE
:1030000098D01E44728095E70020F8BD00207047DC
:1030100098000020E4A0000840A200082CA10008AD
:103020005CA200088CA20008BCA2000810B583684E
:103030001C6874B122681A6014F0030F01D1204695
:1030400010BD054B40F249120449054806F0C2F88C
:10305000F5E70024F3E700BFE0A2000810A3000892
:103060002CA1000838B505460C4611F0030F05D118
:10307000AB681B682360AB681C6038BD034B40F233
:103080009D120349034806F0A5F8F1E7E0A2000805
:1030900034A300082CA10008836800221A6043684A
:1030A000033323F0030307E081680968196081682E
:1030B0000B6001880B44013241889142F4DC704777
:1030C00010B5002406E0054B53F82400FFF7E4FF99
:1030D0000134A4B2082CF6D910BD00BFB49F00087B
:1030E00008B5082805D8074B53F82000FFF79EFFC6
:1030F00008BD054B40F287120449054806F06AF8FE
:103100000020F5E7B49F0008E0A2000868A30008CB
:103110002CA1000808B5082806D821B1064B53F8A1
:103120002000FFF79FFF08BD044B40F2DB1204496B
:10313000044806F04FF8F6E7B49F0008E0A2000844
:1031400088A300082CA1000811F0010F0CD008B5CD
:10315000436823B190F82B3013F0080F00D108BD5D
:10316000011D03F0C5FFFAE77047704770B582B0E4
:103170000D46C1B10A68019242680199914210D08E
:103180000446061D01A9304601F0F8FA01A93046AF
:1031900003F044FD5DB12B68636001212046FFF719
:1031A000D3FF02B070BD034A12680192E4E7002326
:1031B000F2E700BFB4A0000811B10B68C36070470C
:1031C0000023FBE711B10B68836070470023FBE726
:1031D000F8B5044617461E460D4609B10B6863B99B
:1031E00029462046FFF7C2FF39462046FFF7EAFF8F
:1031F00031462046FFF7E0FFF8BD1146FFF7E2FF3A
:1032000031462046FFF7D8FF29462046FFF7AEFF9C
:10321000F2E700002DE9F04104460E4617469846B5
:10322000079D15B300236360A360E36084F82B302F
:10323000032384F82030069BE361104A1378591C5D
:10324000117084F82E30089B236143463A4631467C
:103250002046FFF7BDFF2046A84768B9084B1A680B
:1032600022601C602046BDE8F081064BFB22064927
:10327000064805F0AFFFD5E70020F4E7C8000020BE
:1032800044370020A4A30008D8A300082CA10008FC
:10329000014B1860704700BF4837002008B590F810
:1032A0002B3013F0010F06D143F0010380F82B30CF
:1032B00013F0040F00D108BD0321FFF745FFFAE723
:1032C00008B590F82B3013F0010F06D003F0FE0381
:1032D00080F82B3013F0080F00D108BD03F090FEEA
:1032E000FBE708B590F82B3013F0040F06D143F03C
:1032F000040380F82B3013F0010F00D108BD032127
:10330000FFF722FFFAE790F82B3013F0040F03D0F9
:1033100023F0040380F82B3070470000014B01229A
:103320001A7070474C37002070B50C46164605469B
:1033300018B3B5FA85F35B09002C08BF0123002BF5
:1033400051D1002C21DBA1B22B7B6868032B14BF69
:1033500000220122002B08BF012242B3031B6B6035
:1033600005F1100293421FD3A4B26B8923446B81F1
:103370002B891C442C81002036E01D4B40F23F225B
:103380001C491D4805F026FFD3E7A1B2494289B286
:103390006B898B42D8D2164B40F247221749164808
:1033A00005F018FF01201FE0686001201CE0013BD0
:1033B0009BB2012B0ED8002C06DB002E18BF002C70
:1033C00013DD001B6860CFE76B898B42F5D3001BD0
:1033D0006860C9E7064B40F277220949064805F0C4
:1033E000F9FE012000E0002070BD0120FCE700BFD5
:1033F000F0A3000820A400082CA100082CA40008B9
:103400004CA4000870B5049C04280AD8DFE800F03A
:103410001214030507000E200FE000200DE000202D
:103420000BE0134B40F2C5121249134805F0D2FECF
:10343000002017E0362000E02220033020F00300B7
:103440000E18BDF81450AE4210D800251D6054B1BE
:103450002044586002205873198159811A7301223F
:10346000DA81184670BD00205860F3E70020F9E7C4
:10347000F0A300085CA400082CA1000808B50022F5
:10348000FFF752FF08BD08B50122FFF74DFF08BD49
:1034900070B528B10446037B032B0BD800251FE031
:1034A000274B40F2D2222749274805F093FE0025FA
:1034B000284670BD224B40F2DE222449224805F006
:1034C00089FEEBE71E4B40F2EB2221491E4805F036
:1034D00081FE0AE02369204698470135EDB2344663
:1034E000002CE5D0E389002BECD0E389013B9BB2B3
:1034F000E381002BDCD12668237B627B12F0020F74
:103500000AD02369002BE5D10D4B40F2F922114975
:103510000D4805F05FFEDDE7032B07D0013B9BB2B2
:10352000012B08D92046FFF713FCD6E721460820D7
:10353000FFF7F0FDD1E721460720FFF7EBFDCCE7D1
:10354000F0A3000820A400082CA1000880A4000813
:1035500098A40008B0A400082DE9F8430E461746C9
:1035600004280AD8DFE800F01214030507000E242F
:103570000FE000240DE000240BE0644B4FF48B724D
:103580006349644805F026FE0025B1E0362400E0DA
:103590002224032F00F2AF80DFE807F07B9B9B0221
:1035A0000820FFF79DFD0546F8B10773002303606F
:1035B00004F110030344033323F003034360068143
:1035C000E21C22F00302C2F51472B24228BF324656
:1035D00092B24281134400F51878434508D801237C
:1035E000EB816B89F61AA9462DE0FFF797FE7FE085
:1035F000464B4FF498724849464805F0EBFDEEE71C
:10360000FFF78CFE2846FFF743FF254670E03F4B4F
:103610004FF4A67241493F4805F0DCFD25E03B4BE5
:103620004FF4A9723E493B4805F0D4FD2BE0374BDF
:1036300040F255123849374805F0CCFD0123E381AB
:103640006389F61AA146002E4EDD0820FFF748FDDB
:1036500004460028D4D00773002343730360C9F8DD
:1036600000004FF6FE739E42D1DCB3B22381B3F566
:10367000147F28BF4FF41473638104F11003636057
:1036800013F0030FCBD16B686A8913449845D5D2E8
:10369000CDE704F1130020F0030083B2F21C90B2D6
:1036A00020F00300184480B222F0030290422BD392
:1036B000FFF726FC0546D8B104F110030344033399
:1036C00023F00303436006814681002303600773F0
:1036D0000AE00720FFF704FD054648B100234360D8
:1036E00006814681036007730123EB8100236B731E
:1036F0002846BDE8F883054B4FF4C67209490548D2
:1037000005F068FD0025F3E70025F1E7F0A30008C8
:10371000D4A400082CA10008F0A4000858A50008B3
:103720006CA500089CA500082DE9F0410E46044652
:1037300070B1237B032B18BF012B02D00BB1022BDE
:103740000ED12789B74243D9A6EB0708354616E0C4
:103750002A4B40F2F3122A492A4805F03BFDE8E7DC
:10376000264B40F2F7122849264805F033FDE8E7DA
:10377000F31B228912FA83F32381246884B16389BD
:10378000AB4215D2ED1AADB24FF6FE739845EFDDA0
:103790001A4B40F20B221D491A4805F01BFDE7E7C2
:1037A000164B40F20F221A49164805F013FDE6E7C2
:1037B000227B2AB9AB4203D0637B13F0020F09D0FE
:1037C00065812581206808B1FFF762FE0023236030
:1037D000BDE8F08163681B1B15FA83F189B22046AE
:1037E000FFF704FB04460028EAD1044B40F21D22F7
:1037F0000849044805F0EEFCE2E700BFF0A300082A
:10380000B8A500082CA10008D0A50008ECA5000868
:1038100000A6000818A60008002302E001339BB2AE
:1038200000680028FAD118467047000070B108B54A
:10383000C38901339BB2C38103B108BD044B40F27D
:1038400039320449044805F0C5FCF6E7704700BF6B
:10385000F0A3000834A600082CA1000838B50446DF
:103860000D46B1FA81F14909002808BF012161B173
:10387000154B40F24D321549154805F0ABFC19E0E7
:103880002B8921890B44238114462268002AF7D111
:10389000228963899A420ED1236833B10A4B40F2E0
:1038A00056320C490A4805F095FC2B8922891344AD
:1038B0002381256038BD044B40F255320649044847
:1038C00005F088FCE8E700BFF0A3000848A6000860
:1038D0002CA10008B0A6000880A600082DE9F04140
:1038E0000D46B1FA81F14909002808BF012141B90B
:1038F000074602892B899A4203D34FF000084646B7
:103900003FE03F4B40F2BD323E493F4805F062FC8C
:103910006FF00F0071E09B1B9CB23AE0384B40F215
:10392000CD323A49384805F055FC41E0344B40F27D
:10393000CE323749344805F04DFC3CE03F682B1C43
:1039400018BF0123002F18BF00230BB900263BE04E
:103950002B4B4FF476722F492B4805F03BFC6FF050
:103960000F004AE02B68002B33D0254B40F2DE32AB
:103970002949254805F02EFC6FF005003DE0002D9B
:103980003AD07B89991B6C89A4EB08029142C2DB77
:1039900094B27868696822464144304405F007FCD7
:1039A0002644B6B244441FFA84F87B89B342B5D3A7
:1039B0006B894345BAD36B89434502D82D684FF0D4
:1039C00000087B89B342B9D01DB16A892B899A421C
:1039D000C8D0002FD3D07A893B899A42CFD13B6897
:1039E000002BCCD0064B40F2E3320B49064805F0E1
:1039F000F1FB6FF0050000E00020BDE8F08100BFA2
:103A0000F0A30008FCA600082CA100082CA70008C1
:103A100044A7000860A7000870A700082DE9F0413E
:103A200028B10F469046054661B1002627E01C4BA1
:103A300040F2FE321B491C4805F0CCFB0026304604
:103A4000BDE8F081164B40F2FF321849164805F0E8
:103A5000C1FB0026F3E76A89D21A94B2A04500D2CE
:103A60004446696822461944B81905F0A0FB26446B
:103A7000B6B2A8EB04041FFA84F800232D682A1CB0
:103A800018BF0122B8F1000F08BF0022002AD6D0CB
:103A9000002BE0D069899942DDD85B1A9BB2EDE733
:103AA000F0A300089CA700082CA10008BCA70008F0
:103AB00000E0C06828B1836F8B42FAD1002383678E
:103AC000F7E7704738B5054620B12B7D012B08D1AB
:103AD000012415E00C4BC0220C490D4805F07AFB7F
:103AE000F3E7094BC1220B49094805F073FBEFE7E7
:103AF000094B53F8243029461868FFF7D9FF0134E1
:103B0000032CF5D938BD00BF78A80008A8A8000884
:103B10002CA10008B4A8000844A0000838B5044649
:103B200040B1237D042B1AD0072B21D0032B09D0C1
:103B3000002512E0184B40F24D121849184805F0C4
:103B400049FBEEE7204602F047FB054608B905238E
:103B50002375B5B1B5F1FF3F17D0284638BD2046D3
:103B600002F03AFB05460028F3D105232375F0E760
:103B7000204602F031FB05460028EAD109232375CF
:103B8000E7E7204602F084FBE7E7A37E43F0080363
:103B9000A3760025E1E700BF78A80008A8A80008E0
:103BA0002CA100087047000038B5456A048D2A1919
:103BB000C16A438EB3F5866F94BFCB1801F5866357
:103BC000D31A002B02DB4485501A38BD6B1A002B28
:103BD00003DD002242851046F7E704464D1BB5F58C
:103BE000803F02D265850020EFE7044B4FF442721C
:103BF0000349044805F0EEFAF4E700BF78A800088E
:103C000018A900082CA1000838B505460C46037D0C
:103C1000012B10D0298D214489B22985B1F5066F79
:103C200011D94FF406632B852846FFF7BDFFB0F589
:103C3000067F1BDA38BD114B4FF44872104911480A
:103C400005F0C8FAE6E70029EED12B7D092B18BF55
:103C5000072B03D14FF406632B85E5E7074B40F2B2
:103C60002D320949074805F0B5FADDE7AB7E43F090
:103C70000203AB76284602F00BFBDBE778A80008CE
:103C800034A900082CA100085CA9000850B110B5A7
:103C90000446406808B1FFF7FBFB21460320FFF70D
:103CA00039FA10BD704738B110B50468FFF7EEFF60
:103CB0002046002CF9D110BD704738B505460320C9
:103CC000FFF70EFA044650B128686968AA68EB68E5
:103CD00020606160A260E3606068FFF7A7FD204696
:103CE00038BD38B5027DB2F10A0318BF0123002A9E
:103CF00008BF0023D3B1012A18D00446406F18B181
:103D0000FFF7C6FB00236367206FFFF7CCFF00259A
:103D100025674FF6FF732386A06EFFF7C4FFE06EA2
:103D2000FFF7C1FFA566E566A4F8645038BD000042
:103D30002DE9F04182B0AD4A136801331360AC4AFB
:103D4000137801331370AB4B1C6800266EE1AA4B4D
:103D50004FF47C72A949AA4805F03CFA6BE1A64BE6
:103D600040F2F132A749A64805F034FA67E1A24BC8
:103D700040F2F232A449A24805F02CFA63E1E4686B
:103D800054E194F84220052A40F2688101254AE076
:103D9000204602F0AFFC002862D1002384F8943062
:103DA00094F89530062B5DD8013384F895300025C2
:103DB00039E0B4F93010002901DB01312186E16ED0
:103DC00089B3B4F93000B4F9401088422BDB022BE0
:103DD0000FD0B4F93C10B4F93E3003EBE1038B494A
:103DE0000C2A94BF8A1801F10C02127E9340A4F8A9
:103DF000403000232386B4F85C30B4F84820934266
:103E000028BF13465B08A4F84A30618E4A0092B27C
:103E1000934201D2A4F84A20A4F84810204602F0A8
:103E2000CDFB00E00125237D062B1DD0227A12F068
:103E3000080F3FD0072B18BF042B6ED16B4B1A68AD
:103E4000236AD21AD4F89010714B0B447148A0FB2E
:103E50000303B2EB531F14D90135EDB201272AE059
:103E60000025E0E70025DEE7A27E12F0100FDDD08E
:103E7000216A5E4A1268521A282AD7D90135EDB252
:103E8000D4E794F89630644800FB03136149A1FB22
:103E90000313B2EB531F01D800270CE0204602F0B9
:103EA000FDFB00283BD194F89630013384F896301E
:103EB000002700E00027206F50B14C4B1A68236A9E
:103EC000D21AB4F9403003EB430359008A4228D296
:103ED000237D032B2AD0092B31D0002D38D1E56862
:103EE000E37E0133DBB2E376227F9342C0F09C8015
:103EF0000023E376494A1370D4F88830002B6CD045
:103F0000214620699847454B1B78002B7FF41BAF57
:103F1000002864D026462C4688E00027CBE70027FF
:103F2000C9E7FFF7C0FE00232367D1E7216A2F4AC4
:103F30001268521A282ACED90135EDB2CBE7226A8F
:103F40002A4B1B689B1AF02BC7D90135EDB2C4E789
:103F5000D4F88C502046FFF7C4FE26B3254B1B68CF
:103F6000A34218D0E368F36067BBD4F81080E76819
:103F700021460120FFF7CEF8284B00221A701DB110
:103F80006FF00C014046A847244B1B78002B7FF4B0
:103F9000DAAE3C464AE0184B40F2894220491848C4
:103FA00005F018F9DEE7134B1B68A34206D0124B4D
:103FB00040F28D421B49124805F00CF9E2680D4BA6
:103FC0001A60D1E7616AE06C238B0193E38A009366
:103FD000231D224602F09CFAC7E7002093E7204603
:103FE00002F056F926462C4620E000BF5837002044
:103FF000C90000205437002078A8000818AA00083B
:104000002CA1000844AA000870AA000844A00008D7
:10401000B84C0A00D34D6210F8240100503700203C
:10402000A0AA0008CCAA000826462C4694B3237DFB
:10403000002B3FF48CAE237D012B3FF490AE237D0B
:104040000A2B3FF494AE627F344B1B789A423FF4C4
:1040500096AE6377237D022B3FF493AE94F8422013
:104060000B2A3FF6DFAE94F89550002D3FF4A1AE39
:10407000013D2B4B1D442A7C94F89430934202D28C
:10408000013384F8943094F894309342BFF480AEB6
:104090000025C8E6234B1D6807E02A6A224B1B68EF
:1040A0009B1AF02B0ED82C46ED68002D32D02B7DBC
:1040B0000A2BF2D01D4B40F2BD421D491D4805F0B0
:1040C00089F8EAE72846FFF70CFEA4B1154B1B68F8
:1040D000AB4208D0EB68E360EE6829460120FFF7A9
:1040E00019F83546E1E7114B40F2CB42124911482D
:1040F00005F070F8EEE70B4B1B68AB4206D00B4B9C
:1041000040F2CF420D490B4805F064F8EA68054BD0
:104110001A60E1E702B0BDE8F08100BFC9000020ED
:1041200044A00008643700205837002078A8000811
:10413000F8AA00082CA1000828AB000850AB000822
:1041400010B50C4603688B4205D04BB1DA68A24229
:1041500004D01346F9E7DB68036001E0E268DA6047
:104160000023E3602046FFF7BCFD237D0A2B18BF28
:10417000012B03D0A37E13F0010F21D1237D012B4E
:104180001AD0A36E33B1124B40F253721149124848
:1041900005F020F8E36E33B10D4B40F254720F4935
:1041A0000D4805F017F8236F33B1094B40F25672F2
:1041B0000B49094805F00EF800232375E38210BD72
:1041C00043F00203A376204602F062F8D6E700BF70
:1041D00078A8000878AB00082CA1000890AB000874
:1041E000ACAB000810B582B0044629B3037D072BA1
:1041F00018BF042B20D1436FD3B1A37E13F0100F4F
:1042000025D0238B0193E38A0093231D2246616A04
:10421000E06C02F07DF92046FFF763FD3D4B1B6823
:10422000A3421CD00BB3DA68A2421CD01346F9E7B4
:10423000038DB3F5066FE0D1237D012B50D0002B09
:1042400033D0022B59D02046FFF768FC46E0324BB2
:1042500040F20F123149324804F0BCFFD1E7DA686E
:104260002C4B1A6001E0E268DA600023E3602D4B1A
:1042700001221A70237D042B09D02B4B1B68A3420B
:104280000FD021460120FEF745FF002026E00A233B
:104290002375264B1A68E2601C6002F0E9FA0020E0
:1042A0001CE001F0DFFD002018E0E38A8BB1204B19
:1042B0001B68A34205D053B1DA68A24205D0134669
:1042C000F9E7DA681A4B1A6001E0E268DA60002365
:1042D000E36021460120FEF71DFF002002B010BD63
:1042E0002046FFF7EFFB21461248FFF729FF214642
:1042F0000220FEF70FFF0020F0E721460548FFF7F8
:104300001FFF0120074B18702146FEF703FF002016
:10431000E4E700BF5437002078A80008C4AB0008C9
:104320002CA1000850370020683700206437002097
:10433000603700205C37002008B5037D012B03D0D7
:10434000837E43F0100383760121FFF74BFF08BD06
:1043500010B5084612B953B1002007E01446118980
:10436000FFF752FC2046FFF793F8002010BDFFF73F
:10437000E3FFFBE7F8B50446466F777B002343670E
:10438000D0F88050DDB1324601460069A8470546A5
:10439000EDB917F0200F20D0238DB3F5066F01D0B3
:1043A00001332385D4F88060BEB100231A4621462C
:1043B0002069B04710F10D0F0FD105460DE0002325
:1043C000324601461846FFF7C3FF0546E0E715F100
:1043D0000D0F02D066676FF004052846F8BD000097
:1043E00070B51C4A1378013313701B4B1C6813E023
:1043F00043F00203A376204601F04AFFA37E23F098
:104400000303A37613E023F00803A3762046FFF707
:1044100085FB10E0E5682C46DCB1627F0D4B1B7814
:104420009A42F7D06377A37E13F0010FE0D1A37E09
:1044300013F0080FE7D1E568636F002BEBD0074E50
:10444000002333702046FFF795FF3378002BE2D02E
:10445000CBE770BDC9000020543700205037002042
:1044600008B5FFF7BDFF064A53780133DBB253703E
:1044700013F0010F00D108BDFFF75AFCFBE700BFA6
:10448000C90000202DE9F04782B004460D46037DA7
:10449000012B1AD0237D0A2B1FD0D4F84C80D4F8DE
:1044A0002490D4F88C602769002B41D1B4F816A071
:1044B000BAF1000F46D02A4B1B68A34216D0DBB1DD
:1044C000DA68A24216D01346F9E7264B4FF4F07291
:1044D0002549264804F07EFEDCE721462448FFF704
:1044E0002FFE21460120FEF715FE1EE0DA681C4B68
:1044F0001A6001E0E268DA600025E560AA46E06E35
:1045000008B1FFF7D0FBA06E08B1FFF7CCFB206F1E
:1045100008B1FFF7C8FBBDB921460120FEF7FAFD3F
:104520001EB16FF00C013846B04702B0BDE8F0870D
:10453000B4F816A021460F48FFF702FE0E4B0122E9
:104540001A70DCE70025DAE7238B0193CDF800A091
:10455000231D22464946404601F0DAFFDCE700BF52
:104560006037002078A80008E0AB00082CA1000804
:1045700064370020543700205037002008B501214F
:10458000FFF780FF08BD000010B50A4B1B68002430
:10459000204600E0DB6843B1196A074A1268521AE4
:1045A000A242F7D314461846F4E708B1FFF7E6FF36
:1045B00010BD00BF643700205837002070B5024698
:1045C00010F0800F00D07F220B4B1B680024204688
:1045D0001BB908B1FFF7D2FF70BD5D7D954208D8C9
:1045E0001E6A06490968891BA14202D32A460C4665
:1045F0001846DB68ECE700BF54370020583700202E
:1046000038B50446084603E0C568FFF7B7FF2846FB
:1046100028B1026823689A42F6D0C068F8E738BD2E
:1046200038B50446A0F10803DBB2012B04D8104BC7
:104630001B680021084608E00E4B40F2DC520E4990
:104640000E4804F0C7FDF2E7DB685BB11A7DA242B9
:10465000FAD11D6A0A4A1268521B8A42F4D31146E3
:104660001846F1E710B10021FFF70CFF38BD00BF7D
:104670005437002078A8000814AC00082CA10008CA
:104680005837002038B505460120FEF729FD0446BD
:1046900068B354B398220021204604F093FD657559
:1046A0004FF48663A4F860304FF406626285228579
:1046B000FF22A2724FF4067262860622A4F84020FE
:1046C000E2874FF6FF7222860122A4F84820194A99
:1046D00012682262184A12786277A4F84A30174B9F
:1046E000C4F88030164BC4F89030204638BDFFF730
:1046F0004BFF0120FEF7F4FC04460028C9D1092035
:10470000FFF78EFF0120FEF7EBFC04460028C0D126
:104710000820FFF785FF0120FEF7E2FC0446002891
:10472000B7D12846FFF74AFF0120FEF7D9FC04461F
:10473000AFE700BF58370020C900002051430008F0
:1047400000DD6D00034B5868034A1268104458603E
:10475000704700BF080000205837002010B50446FD
:10476000084603F005F830B1438C23B1283B9BB2D7
:104770009C4228BF1C46204610BD000008B338B537
:104780000446026802B938BD0D460E4B1968FFF7A2
:1047900037FF0D4B19682046FFF732FF002DF2D08E
:1047A0002B68002BEFD0094B1B6800E01346002B51
:1047B000E9D0DA68186821688842F7D12968196059
:1047C000F4E7704754370020603700205C37002042
:1047D0000D4B196881B11A469B88D28893420BD33E
:1047E00010B45C1C08488480DBB2D2B29B1ADBB2E6
:1047F000C85C5DF8044B7047034A93689188481C75
:1048000090800B44187D7047CC00002038B51D4BBC
:104810009B89002B35D004461A4B00229A80194BF5
:104820009A889B899A422CD2FFF7D2FF0128F6D0B2
:1048300038B302281BD1FFF7CBFF042821D1114A3E
:1048400093880233928993421BDCFFF7C1FF85B244
:104850002D02ADB2FFF7BCFF80B205436B1E9BB2C9
:10486000B3F5067F01D34FF406756586D7E7FFF7EA
:10487000AFFF012805D9034A93880344023B938084
:10488000CDE738BDCC0000200E4B9B7B13F0100F02
:1048900016D010B50446837E13F0100F06D1D0F861
:1048A0008C301BB16FF00E01006998472146064815
:1048B000FFF746FC21460120FEF72CFC012010BD2D
:1048C00000207047CC000020543700201B4BDB7BBE
:1048D00013F0040F30D130B583B013F0020F1AD0AB
:1048E000164B1969436ACA1A002A1ADB028D13444F
:1048F000CB1A002B15DC11488368114A848A1D8865
:1049000001955B880093134604322144806901F0CD
:10491000FFFD03B030BD13F0010F02D0094B1B683F
:104920000362064B9B8A002BF3D0837E43F0020385
:10493000837601F0ADFCECE7704700BFCC000020AF
:1049400034020020583700203A4BDB7B13F0040F71
:104950006FD170B582B0044613F0100F04D113F07C
:10496000020F11D102B070BD324B9C68324A9D8A51
:104970001969986923880193638800931346043268
:10498000294401F0C5FDEDE7407DFFF77BFE0546BC
:10499000002840D0294B5A6902601B694360E38AB2
:1049A000C382244EB3681B880383032303753369D2
:1049B00001334362C362FFF7C5FE6865E86468645B
:1049C000A8653369013B2B6523692B61AC67237AAA
:1049D00003F00C032B721A4B1A68EA601D6001F099
:1049E00047FF184B01221A702846FFF70FFFB368E4
:1049F000DB89A5F85C30A5F85E30291D688EFFF7CD
:104A0000ADFE68861221284601F03AFB60B92846BF
:104A100001F03EFCA6E7A369002BA3D04FF0FF32C4
:104A20000021206998479DE700212846FFF72AFDCD
:104A300098E77047CC0000203402002024020020B8
:104A4000543700205037002070B505460C46C36827
:104A50009889FEF7D7F810F0010F12D02046FFF723
:104A600022F900242C6070BDEB689E890120FEF7BE
:104A7000C9F8EB683043988126682046FFF706F9AD
:104A800034468CB12B89114A12691344E1684A6893
:104A9000208902449B1A002B06DB8889FEF7B2F8B6
:104AA00010F0010FE8D0DFE7002CDBD02B89074A9C
:104AB00011690B44E26852689B1A002BD2DD521A2E
:104AC00091B229816868FEF72FFECBE7CC00002069
:104AD000F8B50446037D032B79D9B34BDB7B13F088
:104AE000100F00F09481B4F85C00626D8618216D9F
:104AF000AD4B1B69CD1A002D7CDB99426FD0AA49C2
:104B000089698A4271D0A84B9B69616C5A1A002A44
:104B100040F39580012A04D4E26C9A1A002A40F3EB
:104B2000BE80204601F07BFBA36E002B00F060816D
:104B30009D4A9569DB685868FEF767F80646A36EDC
:104B40001F89DB689889FEF75DF810F0030F00F00D
:104B50004D8101231F443E44AD1B002DC0F248810E
:104B6000914B9B69E26C9B1A002B00F34181A56E6F
:104B70002B68A366002B00F02E81B4F86260686891
:104B8000FEF74AFE8642C0F029816868FEF744FEBF
:104B9000B4F86230181AA4F862002B89824A918B0B
:104BA0000B4493832846FFF771F8B4F86230002B6A
:104BB000BAD0E36E002BB7D1A36E002BB4D17B4BE0
:104BC00040F2DD427A497B4804F004FBACE7774BC6
:104BD0004FF481627849774804F0FCFA7DE7724926
:104BE0008969511A00298ADA04E06F4A9268D289E9
:104BF000904288D26C4A9268D28991B2A4F85C2023
:104C0000B4F85E00814201D9A4F85E202365664BAA
:104C10009B69636551B994F89530002B7FF473AFAD
:104C200084F89430012384F895306CE794F895303B
:104C3000002B3FF468AF002384F8953063E75A4AAD
:104C4000928A2AB9626DB4F85C000244B24203D081
:104C5000002384F8433067E7B4F93020002AF7DBFB
:104C60008B42F5D194F84330FF2B02D0013384F806
:104C7000433094F84330032B0AD9B4F84820638EAC
:104C800013449BB29A42BFF44FAFA4F848304BE7AD
:104C9000032B7FF449AF204601F0D5FC44E7A27E08
:104CA00012F0040F06D022F00402A276B4F84A20D3
:104CB000A4F84820002184F84210B4F93C00E28FA7
:104CC00002EBE002A4F8402084F843106364237DE3
:104CD000032B0CD9B4F84820B4F84A309A424BD28E
:104CE000638E13449BB29A4201D2A4F84830E36E1B
:104CF000002B65D0DB685868FDF787FF0546E36E3B
:104D00001E89DB689889FDF77DFF10F0030F48D0FE
:104D100001231E443544244B9B69ED1A002D4FDCC2
:104D2000E56E2B68E366B4F862606868FEF774FDB0
:104D300086422ED36868FEF76FFDB4F86230181A09
:104D4000A4F862002B89184A918B0B449383284660
:104D5000FEF79CFFB4F86230002BC8D0E36E002B46
:104D6000C5D1A36E002BC2D1104B40F2A74210490F
:104D7000104804F02FFABAE7638E03FB03F393FBAA
:104D8000F2F312FA83F39BB29A42B0D2A4F84830FD
:104D9000ADE7064B40F29E420849064804F01AFA75
:104DA000C8E70023B5E700BFCC000020BCAC00087A
:104DB00034AD00082CA10008F0AC00080CAD0008D0
:104DC000E36E23B1002323860023E376ACE64FF69F
:104DD000FF732386F8E7A4F86430CEE69D4B40F2DB
:104DE000D5429D499D4804F0F5F9CEE60023B1E691
:104DF000B4F860309A4A928B1344A4F86030636B25
:104E00002BB1A26B96498969521A002A28DB944B70
:104E10009B8A002B00F02B83227D062A00F2278339
:104E2000616A8F4A12698E1A012E04D41344CB1A78
:104E30000133002B35DD521A002AC0F29180884BD5
:104E40001969626A8B1A002B06DB238D1344CB1A77
:104E50000133002B40F38980204601F0E0F916E38E
:104E6000804A1268D21A92B2B4F93C10A2EBE10265
:104E700092B213B2114409B2A187002B0EDBB4F930
:104E80003E20A3EBA20312FA83F39BB2E38703EB6A
:104E9000E103A4F8403000236363B8E7524213B241
:104EA000EDE76F4B5D6A374695B147F6FE739E425C
:104EB00016DC6B4B586A4389B34243DA0389B34229
:104EC00016DB674B5B6A1A89B6B2921B92B21CE082
:104ED000604B40F23C526449604804F07BF9E4E7DF
:104EE0005C4B40F23D5261495C4804F073F9E0E7E5
:104EF000584B40F23F525E49584804F06BF9E0E7E6
:104F0000FF1A2A8100236B812D686B89BB42F7DB76
:104F1000794209B22846FEF7B1FA58B9616A504B96
:104F20001A69521A188D10FA82F21A851961DB6A11
:104F3000596084E7474B40F24C524E49474804F0D1
:104F400049F9EBE7714209B2FEF798FA0028E5D07B
:104F5000404B40F251524749404804F03BF9DDE7ED
:104F6000A37E43F00203A37669E7914208D020466E
:104F700001F055F9256F002D00F09C810026CBE152
:104F8000374B1D8DDB6A9889FDF73CFE10F0030F4F
:104F900014D001232B449BB2314A9382228D934239
:104FA0000ED8236F002B70D02D4BDB6A9889FDF74C
:104FB00029FE10F0010F65D1256F95E00023E9E788
:104FC000274BDB6A9889FDF71DFE10F0010F2ED1EB
:104FD000228D234B1A85DB6A9889FDF713FE10F0AA
:104FE000020F03D01E4A138D013B13851C4E318DD9
:104FF000706AFEF799FB358DF36A9889FDF702FE1A
:1050000010F0030F23D001232B449BB2144A938248
:1050100012691344626A218D0A449342C1D00D4B38
:1050200040F27F5214490D4804F0D4F8B9E70C4E11
:10503000F36A988920F47C55ADB2FDF7E3FD00F0EA
:105040003E00FDF7DFFDF36A28439881C0E70023A7
:10505000DAE700BFBCAC00080CAD00082CA10008CA
:10506000CC0000205837002054AD000864AD000883
:1050700074AD000884AD000898AD0008036823678C
:10508000FEF704FE206F0028F8D1984B9A8A1B691E
:1050900013446362238D9A4200F28F80934D238DD7
:1050A000AA8A9B1A23852046FEF77EFD6B6A1A8921
:1050B00012B12B6300236B628C4BDB6A9889FDF77E
:1050C000A1FD10F0010F00F0A680884A937B43F009
:1050D000200393739FE000231F44844B9F822E681C
:1050E0002846FEF7D3FD35465DB3804A938A1269A0
:1050F0001344E9684A68288902449B1A002B20DB84
:105100008889FDF77FFD10F0010FE8D0774BDB6A4F
:105110009889FDF777FD10F0020FE0D1734EF36A26
:105120009F890120FDF76EFDF36A38439881378D22
:10513000F36A9889FDF766FD10F0030FCBD00123C9
:10514000CAE745B1694B19699B8A0B44EA68526802
:105150009B1A002B01DC256797E7521A634B1A85CF
:10516000DB6A9889FDF74EFD10F0020F03D05F4A0D
:10517000138D013B13855D4F398D786AFEF7D4FAA4
:105180003E8DFB6A9889FDF73DFD10F0030F12D0AC
:10519000012333449BB2554A938212691344EA684F
:1051A00052689342D7D0524B40F2AF5251495248C5
:1051B00004F010F8CFE70023EBE74D4B40F2B95273
:1051C0004E494D4804F006F868E7002335E0002317
:1051D00041E0474B40F2DE524949474803F0FAFFAD
:1051E0003CE0002343E0414B196300236B60EB6814
:1051F0009889FDF707FD10F0010F07D03B4A937B1C
:1052000043F020039373237D042B42D02B68236744
:105210002846FEF73BFD256F002D3DD0EA68536818
:10522000616A8B4238D131490B612E899089FDF733
:10523000E9FC10F0030FC8D001231E44636A334415
:105240006362278D2E89EB689889FDF7DBFC10F0EF
:10525000030FBCD001231E44B742BAD32E89EB689A
:105260009889FDF7CFFC10F0030FBAD001231E443C
:10527000238D9B1B23852046FEF796FC69680B89CE
:10528000002BB4D0194B186B0028ACD0FEF7E6FA0F
:10529000ABE707232375B9E7A37E13F0010F05D011
:1052A00003F0FE0343F00203A376F0E043F00103B2
:1052B000A376ECE01348FEF700FD2067E7E00B4B18
:1052C0001A8D2B899A4240F2E2800E48FEF7F5FCD7
:1052D0000346002800F0DB802EB1306029461846D6
:1052E000FFF7B2FBD3E02067F8E700BFCC00002057
:1052F000BCAC0008D0AD00082CA100080CAE000822
:105300002CAE0008EC000020991A002934DB296833
:105310002E4600293BD00D46002D00F0B880E868ED
:1053200042685B4B1B699A42C9D0002EECD0F168F1
:105330004968591A0129EAD4991A01310029E6DC91
:105340005448FEF7BAFC0446002800F0A080F36839
:10535000596832890A444E4B1B69D21A002A05DD6E
:105360005B1A99B231817068FEF7DEF93460294624
:105370002046FFF769FB8AE04648FEF79EFC0028BE
:1053800000F0858020672946FFF75EFB7FE09B1ACF
:10539000002B01DC0D46BFE78089FDF733FC10F0E0
:1053A000010F74D13B48FEF788FC286000286ED0BE
:1053B000EB6859682A890A44354B1B69D21A002ABE
:1053C0004CDC334A938A12691344626A218D0A4481
:1053D0009B1A002B5BDD2B68DB689889FDF712FCBC
:1053E00010F0010F0FD02B68DB68988920F47C56F1
:1053F000B6B2FDF707FC00F03E00FDF703FC2B689A
:10540000DB6830439881626A238D13449BB22A681B
:105410001F4909695B1A13812B6819895868FEF7BF
:1054200083F92B681D89DB689889FDF7EBFB10F089
:10543000030F1AD001232B449BB2154A93821269A1
:105440001344626A218D0A44934220D0124B40F2E9
:105450007B621249124803F0BDFE18E05B1A99B254
:1054600029816868FEF760F9ABE70023E3E7084BA2
:105470001B69626A991A002905DB218D0A449B1A6F
:105480000133002B03DDA37E43F00203A376F8BDB6
:10549000CC000020EC000020BCAC000898AD000857
:1054A0002CA1000870B582B004469D4BDB7B13F045
:1054B000040F36D0017D02290FD0426A984B1B6938
:1054C0009A4219D0991A0029C0F25282018D0A44D9
:1054D0009B1A002B0ADD002505E0C26C904B9B69EE
:1054E0009A4209D00025284602B070BD837E43F061
:1054F000020383760025F6E759B1894A937B43F08E
:1055000008039373A37E23F00103A3766FF00D05C8
:10551000E9E7844B40F2E7228349844803F05AFECE
:10552000EBE713F0020F0AD0037D023BDBB2012B45
:1055300005D9837E43F0020383760025D3E7A37E5B
:1055400013F0100F02D17A4B1B682362002384F8FA
:1055500096302046FFF75AF9237D023B072B00F2D5
:105560000982DFE813F008009500230134018A0165
:105570002301B801EB016A4BDB7B03F01202122A14
:1055800004D013F0100F68D10025ACE7626C013233
:10559000634989698A42F4D1614A1369581C60627F
:1055A000E06261649268D289A4F85C20A4F85E206D
:1055B000013B236504232375E118608EFFF7CEF8C5
:1055C0006086430041F21C12934238BF13468000AC
:1055D000834228BF0346A4F84830B4F862301BB3B6
:1055E000B4F86230013BA4F86230E56E25B32B6855
:1055F000E3662846FEF74AFBE36E53B30023238697
:1056000084F84230D4F8843043B100222146206926
:105610009847054610F10D0F3FF465AFA37E43F0A8
:105620000203A37600255EE73E4B40F21A32414961
:105630003E4803F0CFFDD3E7A56E15B12B68A366F6
:10564000D7E7384B40F222323B49384803F0C2FDDD
:10565000F4E74FF6FF732386D4E7314B9D68374A52
:105660009E8A196998692B8801936B880093134669
:105670000432314400F04CFF94F84230052B01D93C
:10568000002530E700252586204600F097FF2AE711
:10569000234BDB7B13F0100F77D0214B9869636CA1
:1056A000C31A012B03D4E36CC31A002B0FDD1C4B70
:1056B0009C68224A9D8A1969238801936388009314
:1056C00013460432294400F023FF00250BE704238E
:1056D0002375A36F0BB19B699BB1A36FCBB19B6982
:1056E000D3B10022214620699847054650B315F1F1
:1056F0000D0F3FF4F8AE2046FEF740FF6FF00C05AB
:10570000F1E6084B40F251320D49084803F062FDC2
:10571000E3E76FF00505EAE76FF00F05E7E700BF85
:10572000CC000020BCAC000854AE00082CA100083E
:105730005837002074AE00088CAE000834020020F8
:10574000A0AE00082046FFF7C3F9904B9B8B13B126
:10575000013B8E4A9383628E530041F21C118B42AF
:1057600038BF0B469200934228BF1346A4F8483036
:10577000864B9B7B13F0200F3FF4B5AEA37E43F026
:105780000203A37607232375ADE613F0020F00F0A2
:10579000F380636A013B7D4A1269934201D0002580
:1057A000A1E6204600F025FF00259CE62046FFF7F5
:1057B0008FF9764B9B7B13F0200F00F0DF80A37EE8
:1057C00043F00203A3760723237500258BE62046CA
:1057D000FFF77EF96D4B9B7B13F0200F38D06B4B9E
:1057E000DB7B13F0100F04D0E26C684B9B699A428C
:1057F00007D0A37E43F00203A37608232375002578
:1058000071E6A36E002BF4D1A37E43F00203A376CE
:105810002046FEF766FA5E4B1B68A34205D03BB1FB
:10582000DA68A24211D01346F9E7DA68584B1A60D9
:10583000584B01221A700A232375574B1A68E260ED
:105840001C6001F015F800254DE6E268DA60EFE72C
:105850004E4BDB7B13F0100F00F09280E26C4B4B51
:105860009B699A4201D000253DE6A36E0BB100254D
:1058700039E606232375002535E62046FFF728F98B
:10588000424B9B7B13F0200F01D100252BE6A37E1A
:1058900043F00203A3762046FEF723FA3C4B1B6835
:1058A000A34205D053B1DA68A24205D01346F9E706
:1058B000DA68374B1A6001E0E268DA60354B0122A2
:1058C0001A700A232375344B1A68E2601C6000F0DA
:1058D000CFFF002507E62046FFF7FAF82B4BDB7BCE
:1058E00013F0100F4ED0E26C284B9B699A4201D006
:1058F0000025F8E5A36E0BB10025F4E52046FEF780
:10590000F0F9234B1B68A34205D053B1DA68A242D9
:1059100005D01346F9E7DA681D4B1A6001E0E2682A
:10592000DA601C4B01221A700A2323751A4B1A687D
:10593000E2601C6000F09CFF0025D4E52046FFF7E4
:10594000C7F8124BDB7B13F0100F1DD0E26C0F4B2E
:105950009B699A4201D00025C5E5A36E0BB10025D5
:10596000C1E50A4A937B43F0100393730025BAE51F
:105970000025B8E50025B6E50025B4E50025B2E52B
:105980000025B0E50025AEE50025ACE5CC00002003
:1059900054370020503700206437002070B582B0A3
:1059A00004464268984B9A604389132B0BD9974B56
:1059B0001968586902F095F828B9944B5B6903F0AF
:1059C000F003E02B04D12046FDF762FD02B070BD6C
:1059D0008D4B9B689889FDF715F9C0F30F3189004D
:1059E000C9B21329EFD989B223899942EBD8A1F121
:1059F00014039BB2844A9381002010606289914213
:105A00002FD92368002B60D06FF013012046FDF7DB
:105A100035FD61897C4BD9809D896D1AADB24942B3
:105A200009B22046FDF72AFD20684389AB42CAD35C
:105A30004268754B1A60694209B2FDF71FFD238960
:105A40005D1B25816389002B46D1228923681B8930
:105A50009A420CD06E4BD0226E496F4803F0BAFBCD
:105A600005E0694AD38049422046FDF707FD664DAF
:105A7000AE683088FDF7C6F83080AE687088FDF7F4
:105A8000C1F87080AE687068FDF7BFF8706028617B
:105A9000AE68B068FDF7B9F8B060A861AE68F0898B
:105AA000FDF7B0F8F081AB689889FDF7ABF800F02E
:105AB0003F00E873238910F0030018BF0120184449
:105AC000A882564B1D68002632E0514BB222544941
:105AD000514803F07FFB97E74D4BCF2251494E4889
